{
  "contractName": "SmartContract",
  "abi": [
    {
      "inputs": [
        {
          "internalType": "string",
          "name": "_name",
          "type": "string"
        },
        {
          "internalType": "string",
          "name": "_symbol",
          "type": "string"
        },
        {
          "internalType": "string",
          "name": "_initBaseURI",
          "type": "string"
        }
      ],
      "stateMutability": "nonpayable",
      "type": "constructor"
    },
    {
      "anonymous": false,
      "inputs": [
        {
          "indexed": true,
          "internalType": "address",
          "name": "owner",
          "type": "address"
        },
        {
          "indexed": true,
          "internalType": "address",
          "name": "approved",
          "type": "address"
        },
        {
          "indexed": true,
          "internalType": "uint256",
          "name": "tokenId",
          "type": "uint256"
        }
      ],
      "name": "Approval",
      "type": "event"
    },
    {
      "anonymous": false,
      "inputs": [
        {
          "indexed": true,
          "internalType": "address",
          "name": "owner",
          "type": "address"
        },
        {
          "indexed": true,
          "internalType": "address",
          "name": "operator",
          "type": "address"
        },
        {
          "indexed": false,
          "internalType": "bool",
          "name": "approved",
          "type": "bool"
        }
      ],
      "name": "ApprovalForAll",
      "type": "event"
    },
    {
      "anonymous": false,
      "inputs": [
        {
          "indexed": true,
          "internalType": "address",
          "name": "previousOwner",
          "type": "address"
        },
        {
          "indexed": true,
          "internalType": "address",
          "name": "newOwner",
          "type": "address"
        }
      ],
      "name": "OwnershipTransferred",
      "type": "event"
    },
    {
      "anonymous": false,
      "inputs": [
        {
          "indexed": true,
          "internalType": "address",
          "name": "from",
          "type": "address"
        },
        {
          "indexed": true,
          "internalType": "address",
          "name": "to",
          "type": "address"
        },
        {
          "indexed": true,
          "internalType": "uint256",
          "name": "tokenId",
          "type": "uint256"
        }
      ],
      "name": "Transfer",
      "type": "event"
    },
    {
      "inputs": [
        {
          "internalType": "address",
          "name": "to",
          "type": "address"
        },
        {
          "internalType": "uint256",
          "name": "tokenId",
          "type": "uint256"
        }
      ],
      "name": "approve",
      "outputs": [],
      "stateMutability": "nonpayable",
      "type": "function"
    },
    {
      "inputs": [
        {
          "internalType": "address",
          "name": "owner",
          "type": "address"
        }
      ],
      "name": "balanceOf",
      "outputs": [
        {
          "internalType": "uint256",
          "name": "",
          "type": "uint256"
        }
      ],
      "stateMutability": "view",
      "type": "function",
      "constant": true
    },
    {
      "inputs": [],
      "name": "baseExtension",
      "outputs": [
        {
          "internalType": "string",
          "name": "",
          "type": "string"
        }
      ],
      "stateMutability": "view",
      "type": "function",
      "constant": true
    },
    {
      "inputs": [],
      "name": "baseURI",
      "outputs": [
        {
          "internalType": "string",
          "name": "",
          "type": "string"
        }
      ],
      "stateMutability": "view",
      "type": "function",
      "constant": true
    },
    {
      "inputs": [],
      "name": "cost",
      "outputs": [
        {
          "internalType": "uint256",
          "name": "",
          "type": "uint256"
        }
      ],
      "stateMutability": "view",
      "type": "function",
      "constant": true
    },
    {
      "inputs": [
        {
          "internalType": "uint256",
          "name": "tokenId",
          "type": "uint256"
        }
      ],
      "name": "getApproved",
      "outputs": [
        {
          "internalType": "address",
          "name": "",
          "type": "address"
        }
      ],
      "stateMutability": "view",
      "type": "function",
      "constant": true
    },
    {
      "inputs": [
        {
          "internalType": "address",
          "name": "owner",
          "type": "address"
        },
        {
          "internalType": "address",
          "name": "operator",
          "type": "address"
        }
      ],
      "name": "isApprovedForAll",
      "outputs": [
        {
          "internalType": "bool",
          "name": "",
          "type": "bool"
        }
      ],
      "stateMutability": "view",
      "type": "function",
      "constant": true
    },
    {
      "inputs": [],
      "name": "maxMintAmount",
      "outputs": [
        {
          "internalType": "uint256",
          "name": "",
          "type": "uint256"
        }
      ],
      "stateMutability": "view",
      "type": "function",
      "constant": true
    },
    {
      "inputs": [],
      "name": "maxSupply",
      "outputs": [
        {
          "internalType": "uint256",
          "name": "",
          "type": "uint256"
        }
      ],
      "stateMutability": "view",
      "type": "function",
      "constant": true
    },
    {
      "inputs": [],
      "name": "name",
      "outputs": [
        {
          "internalType": "string",
          "name": "",
          "type": "string"
        }
      ],
      "stateMutability": "view",
      "type": "function",
      "constant": true
    },
    {
      "inputs": [],
      "name": "owner",
      "outputs": [
        {
          "internalType": "address",
          "name": "",
          "type": "address"
        }
      ],
      "stateMutability": "view",
      "type": "function",
      "constant": true
    },
    {
      "inputs": [
        {
          "internalType": "uint256",
          "name": "tokenId",
          "type": "uint256"
        }
      ],
      "name": "ownerOf",
      "outputs": [
        {
          "internalType": "address",
          "name": "",
          "type": "address"
        }
      ],
      "stateMutability": "view",
      "type": "function",
      "constant": true
    },
    {
      "inputs": [],
      "name": "paused",
      "outputs": [
        {
          "internalType": "bool",
          "name": "",
          "type": "bool"
        }
      ],
      "stateMutability": "view",
      "type": "function",
      "constant": true
    },
    {
      "inputs": [],
      "name": "renounceOwnership",
      "outputs": [],
      "stateMutability": "nonpayable",
      "type": "function"
    },
    {
      "inputs": [
        {
          "internalType": "address",
          "name": "from",
          "type": "address"
        },
        {
          "internalType": "address",
          "name": "to",
          "type": "address"
        },
        {
          "internalType": "uint256",
          "name": "tokenId",
          "type": "uint256"
        }
      ],
      "name": "safeTransferFrom",
      "outputs": [],
      "stateMutability": "nonpayable",
      "type": "function"
    },
    {
      "inputs": [
        {
          "internalType": "address",
          "name": "from",
          "type": "address"
        },
        {
          "internalType": "address",
          "name": "to",
          "type": "address"
        },
        {
          "internalType": "uint256",
          "name": "tokenId",
          "type": "uint256"
        },
        {
          "internalType": "bytes",
          "name": "_data",
          "type": "bytes"
        }
      ],
      "name": "safeTransferFrom",
      "outputs": [],
      "stateMutability": "nonpayable",
      "type": "function"
    },
    {
      "inputs": [
        {
          "internalType": "address",
          "name": "operator",
          "type": "address"
        },
        {
          "internalType": "bool",
          "name": "approved",
          "type": "bool"
        }
      ],
      "name": "setApprovalForAll",
      "outputs": [],
      "stateMutability": "nonpayable",
      "type": "function"
    },
    {
      "inputs": [
        {
          "internalType": "bytes4",
          "name": "interfaceId",
          "type": "bytes4"
        }
      ],
      "name": "supportsInterface",
      "outputs": [
        {
          "internalType": "bool",
          "name": "",
          "type": "bool"
        }
      ],
      "stateMutability": "view",
      "type": "function",
      "constant": true
    },
    {
      "inputs": [],
      "name": "symbol",
      "outputs": [
        {
          "internalType": "string",
          "name": "",
          "type": "string"
        }
      ],
      "stateMutability": "view",
      "type": "function",
      "constant": true
    },
    {
      "inputs": [
        {
          "internalType": "uint256",
          "name": "index",
          "type": "uint256"
        }
      ],
      "name": "tokenByIndex",
      "outputs": [
        {
          "internalType": "uint256",
          "name": "",
          "type": "uint256"
        }
      ],
      "stateMutability": "view",
      "type": "function",
      "constant": true
    },
    {
      "inputs": [
        {
          "internalType": "address",
          "name": "owner",
          "type": "address"
        },
        {
          "internalType": "uint256",
          "name": "index",
          "type": "uint256"
        }
      ],
      "name": "tokenOfOwnerByIndex",
      "outputs": [
        {
          "internalType": "uint256",
          "name": "",
          "type": "uint256"
        }
      ],
      "stateMutability": "view",
      "type": "function",
      "constant": true
    },
    {
      "inputs": [],
      "name": "totalSupply",
      "outputs": [
        {
          "internalType": "uint256",
          "name": "",
          "type": "uint256"
        }
      ],
      "stateMutability": "view",
      "type": "function",
      "constant": true
    },
    {
      "inputs": [
        {
          "internalType": "address",
          "name": "from",
          "type": "address"
        },
        {
          "internalType": "address",
          "name": "to",
          "type": "address"
        },
        {
          "internalType": "uint256",
          "name": "tokenId",
          "type": "uint256"
        }
      ],
      "name": "transferFrom",
      "outputs": [],
      "stateMutability": "nonpayable",
      "type": "function"
    },
    {
      "inputs": [
        {
          "internalType": "address",
          "name": "newOwner",
          "type": "address"
        }
      ],
      "name": "transferOwnership",
      "outputs": [],
      "stateMutability": "nonpayable",
      "type": "function"
    },
    {
      "inputs": [
        {
          "internalType": "address",
          "name": "",
          "type": "address"
        }
      ],
      "name": "whitelisted",
      "outputs": [
        {
          "internalType": "bool",
          "name": "",
          "type": "bool"
        }
      ],
      "stateMutability": "view",
      "type": "function",
      "constant": true
    },
    {
      "inputs": [
        {
          "internalType": "address",
          "name": "_to",
          "type": "address"
        },
        {
          "internalType": "uint256",
          "name": "_mintAmount",
          "type": "uint256"
        }
      ],
      "name": "mint",
      "outputs": [],
      "stateMutability": "payable",
      "type": "function",
      "payable": true
    },
    {
      "inputs": [
        {
          "internalType": "address",
          "name": "_owner",
          "type": "address"
        }
      ],
      "name": "walletOfOwner",
      "outputs": [
        {
          "internalType": "uint256[]",
          "name": "",
          "type": "uint256[]"
        }
      ],
      "stateMutability": "view",
      "type": "function",
      "constant": true
    },
    {
      "inputs": [
        {
          "internalType": "uint256",
          "name": "tokenId",
          "type": "uint256"
        }
      ],
      "name": "tokenURI",
      "outputs": [
        {
          "internalType": "string",
          "name": "",
          "type": "string"
        }
      ],
      "stateMutability": "view",
      "type": "function",
      "constant": true
    },
    {
      "inputs": [
        {
          "internalType": "uint256",
          "name": "_newCost",
          "type": "uint256"
        }
      ],
      "name": "setCost",
      "outputs": [],
      "stateMutability": "nonpayable",
      "type": "function"
    },
    {
      "inputs": [
        {
          "internalType": "uint256",
          "name": "_newmaxMintAmount",
          "type": "uint256"
        }
      ],
      "name": "setmaxMintAmount",
      "outputs": [],
      "stateMutability": "nonpayable",
      "type": "function"
    },
    {
      "inputs": [
        {
          "internalType": "string",
          "name": "_newBaseURI",
          "type": "string"
        }
      ],
      "name": "setBaseURI",
      "outputs": [],
      "stateMutability": "nonpayable",
      "type": "function"
    },
    {
      "inputs": [
        {
          "internalType": "string",
          "name": "_newBaseExtension",
          "type": "string"
        }
      ],
      "name": "setBaseExtension",
      "outputs": [],
      "stateMutability": "nonpayable",
      "type": "function"
    },
    {
      "inputs": [
        {
          "internalType": "bool",
          "name": "_state",
          "type": "bool"
        }
      ],
      "name": "pause",
      "outputs": [],
      "stateMutability": "nonpayable",
      "type": "function"
    },
    {
      "inputs": [
        {
          "internalType": "address",
          "name": "_user",
          "type": "address"
        }
      ],
      "name": "whitelistUser",
      "outputs": [],
      "stateMutability": "nonpayable",
      "type": "function"
    },
    {
      "inputs": [
        {
          "internalType": "address",
          "name": "_user",
          "type": "address"
        }
      ],
      "name": "removeWhitelistUser",
      "outputs": [],
      "stateMutability": "nonpayable",
      "type": "function"
    },
    {
      "inputs": [],
      "name": "withdraw",
      "outputs": [],
      "stateMutability": "payable",
      "type": "function",
      "payable": true
    }
  ],
  "bytecode": "0x60c06040526005608081905264173539b7b760d91b60a09081526200002891600c919062000861565b5068056bc75e2d63100000600d556103e8600e556014600f556010805460ff191690553480156200005857600080fd5b506040516200328c3803806200328c8339810160408190526200007b91620009c1565b8251839083906200009490600090602085019062000861565b508051620000aa90600190602084019062000861565b505050620000c7620000c1620000e860201b60201c565b620000ec565b620000d2816200013e565b620000df336005620001a6565b50505062000cee565b3390565b600a80546001600160a01b038381166001600160a01b0319831681179093556040519116919082907f8be0079c531659141344cd1fd0a4f28419497f9722a3daafe3b4186f6b6457e090600090a35050565b62000148620000e8565b6001600160a01b03166200015b62000299565b6001600160a01b0316146200018d5760405162461bcd60e51b8152600401620001849062000bac565b60405180910390fd5b8051620001a290600b90602084019062000861565b5050565b6000620001b2620002a8565b60105490915060ff1615620001c657600080fd5b60008211620001d457600080fd5b600f54821115620001e457600080fd5b600e54620001f3838362000be1565b1115620001ff57600080fd5b6200020962000299565b6001600160a01b0316336001600160a01b0316146200025c573360009081526011602052604090205460ff1615156001146200025c5781600d546200024f919062000bfc565b3410156200025c57600080fd5b60015b82811162000293576200027e8462000278838562000be1565b620002ae565b806200028a8162000ca4565b9150506200025f565b50505050565b600a546001600160a01b031690565b60085490565b620001a2828260405180602001604052806000815250620002d060201b60201c565b620002dc83836200030f565b620002eb6000848484620003fa565b6200030a5760405162461bcd60e51b8152600401620001849062000aa4565b505050565b6001600160a01b038216620003385760405162461bcd60e51b8152600401620001849062000b77565b620003438162000533565b15620003635760405162461bcd60e51b8152600401620001849062000af6565b620003716000838362000550565b6001600160a01b03821660009081526003602052604081208054600192906200039c90849062000be1565b909155505060008181526002602052604080822080546001600160a01b0319166001600160a01b03861690811790915590518392907fddf252ad1be2c89b69c2b068fc378daa952ba7f163c4a11628f55a4df523b3ef908290a45050565b60006200041b846001600160a01b0316620005f460201b620011061760201c565b1562000527576001600160a01b03841663150b7a026200043a620000e8565b8786866040518563ffffffff1660e01b81526004016200045e949392919062000a4e565b602060405180830381600087803b1580156200047957600080fd5b505af1925050508015620004ac575060408051601f3d908101601f19168201909252620004a99181019062000990565b60015b6200050c573d808015620004dd576040519150601f19603f3d011682016040523d82523d6000602084013e620004e2565b606091505b508051620005045760405162461bcd60e51b8152600401620001849062000aa4565b805181602001fd5b6001600160e01b031916630a85bd0160e11b1490506200052b565b5060015b949350505050565b6000908152600260205260409020546001600160a01b0316151590565b620005688383836200030a60201b620008321760201c565b6001600160a01b03831662000588576200058281620005fa565b620005ae565b816001600160a01b0316836001600160a01b031614620005ae57620005ae83826200063e565b6001600160a01b038216620005ce57620005c881620006eb565b6200030a565b826001600160a01b0316826001600160a01b0316146200030a576200030a8282620007c9565b3b151590565b600880546000838152600960205260408120829055600182018355919091527ff3f7a9fe364faab93b216da50a3214154f22a0a2b415b23a84c8169e8b636ee30155565b6000600162000658846200081a60201b62000d711760201c565b62000664919062000c1e565b600083815260076020526040902054909150808214620006b8576001600160a01b03841660009081526006602090815260408083208584528252808320548484528184208190558352600790915290208190555b5060009182526007602090815260408084208490556001600160a01b039094168352600681528383209183525290812055565b600854600090620006ff9060019062000c1e565b600083815260096020526040812054600880549394509092849081106200073657634e487b7160e01b600052603260045260246000fd5b9060005260206000200154905080600883815481106200076657634e487b7160e01b600052603260045260246000fd5b6000918252602080832090910192909255828152600990915260408082208490558582528120556008805480620007ad57634e487b7160e01b600052603160045260246000fd5b6001900381819060005260206000200160009055905550505050565b6000620007e1836200081a60201b62000d711760201c565b6001600160a01b039093166000908152600660209081526040808320868452825280832085905593825260079052919091209190915550565b60006001600160a01b038216620008455760405162461bcd60e51b8152600401620001849062000b2d565b506001600160a01b031660009081526003602052604090205490565b8280546200086f9062000c67565b90600052602060002090601f016020900481019282620008935760008555620008de565b82601f10620008ae57805160ff1916838001178555620008de565b82800160010185558215620008de579182015b82811115620008de578251825591602001919060010190620008c1565b50620008ec929150620008f0565b5090565b5b80821115620008ec5760008155600101620008f1565b600082601f83011262000918578081fd5b81516001600160401b038082111562000935576200093562000cd8565b604051601f8301601f1916810160200182811182821017156200095c576200095c62000cd8565b60405282815284830160200186101562000974578384fd5b6200098783602083016020880162000c38565b95945050505050565b600060208284031215620009a2578081fd5b81516001600160e01b031981168114620009ba578182fd5b9392505050565b600080600060608486031215620009d6578182fd5b83516001600160401b0380821115620009ed578384fd5b620009fb8783880162000907565b9450602086015191508082111562000a11578384fd5b62000a1f8783880162000907565b9350604086015191508082111562000a35578283fd5b5062000a448682870162000907565b9150509250925092565b600060018060a01b03808716835280861660208401525083604083015260806060830152825180608084015262000a8d8160a085016020870162000c38565b601f01601f19169190910160a00195945050505050565b60208082526032908201527f4552433732313a207472616e7366657220746f206e6f6e20455243373231526560408201527131b2b4bb32b91034b6b83632b6b2b73a32b960711b606082015260800190565b6020808252601c908201527f4552433732313a20746f6b656e20616c7265616479206d696e74656400000000604082015260600190565b6020808252602a908201527f4552433732313a2062616c616e636520717565727920666f7220746865207a65604082015269726f206164647265737360b01b606082015260800190565b6020808252818101527f4552433732313a206d696e7420746f20746865207a65726f2061646472657373604082015260600190565b6020808252818101527f4f776e61626c653a2063616c6c6572206973206e6f7420746865206f776e6572604082015260600190565b6000821982111562000bf75762000bf762000cc2565b500190565b600081600019048311821515161562000c195762000c1962000cc2565b500290565b60008282101562000c335762000c3362000cc2565b500390565b60005b8381101562000c5557818101518382015260200162000c3b565b83811115620002935750506000910152565b60028104600182168062000c7c57607f821691505b6020821081141562000c9e57634e487b7160e01b600052602260045260246000fd5b50919050565b600060001982141562000cbb5762000cbb62000cc2565b5060010190565b634e487b7160e01b600052601160045260246000fd5b634e487b7160e01b600052604160045260246000fd5b61258e8062000cfe6000396000f3fe60806040526004361061020f5760003560e01c806355f804b311610118578063a22cb465116100a0578063d5abeb011161006f578063d5abeb01146105ad578063d936547e146105c2578063da3ef23f146105e2578063e985e9c514610602578063f2fde38b146106225761020f565b8063a22cb46514610538578063b88d4fde14610558578063c668286214610578578063c87b56dd1461058d5761020f565b806370a08231116100e757806370a08231146104b9578063715018a6146104d95780637f00c7a6146104ee5780638da5cb5b1461050e57806395d89b41146105235761020f565b806355f804b31461044f5780635c975abb1461046f5780636352211e146104845780636c0360eb146104a45761020f565b80632f745c591161019b57806342842e0e1161016a57806342842e0e146103a2578063438b6300146103c257806344a0d68a146103ef5780634a4c560d1461040f5780634f6ccce71461042f5761020f565b80632f745c591461034757806330cc7ae0146103675780633ccfd60b1461038757806340c10f191461038f5761020f565b8063095ea7b3116101e2578063095ea7b3146102bb57806313faede6146102db57806318160ddd146102fd578063239c70ae1461031257806323b872dd146103275761020f565b806301ffc9a71461021457806302329a291461024a57806306fdde031461026c578063081812fc1461028e575b600080fd5b34801561022057600080fd5b5061023461022f366004611cbf565b610642565b6040516102419190611ed8565b60405180910390f35b34801561025657600080fd5b5061026a610265366004611ca5565b61066f565b005b34801561027857600080fd5b506102816106ca565b6040516102419190611ee3565b34801561029a57600080fd5b506102ae6102a9366004611d3d565b61075c565b6040516102419190611e43565b3480156102c757600080fd5b5061026a6102d6366004611c7c565b61079f565b3480156102e757600080fd5b506102f0610837565b60405161024191906123f3565b34801561030957600080fd5b506102f061083d565b34801561031e57600080fd5b506102f0610843565b34801561033357600080fd5b5061026a610342366004611b9f565b610849565b34801561035357600080fd5b506102f0610362366004611c7c565b610881565b34801561037357600080fd5b5061026a610382366004611b53565b6108d3565b61026a610933565b61026a61039d366004611c7c565b610998565b3480156103ae57600080fd5b5061026a6103bd366004611b9f565b610a74565b3480156103ce57600080fd5b506103e26103dd366004611b53565b610a8f565b6040516102419190611e94565b3480156103fb57600080fd5b5061026a61040a366004611d3d565b610b4d565b34801561041b57600080fd5b5061026a61042a366004611b53565b610b91565b34801561043b57600080fd5b506102f061044a366004611d3d565b610bf4565b34801561045b57600080fd5b5061026a61046a366004611cf7565b610c4f565b34801561047b57600080fd5b50610234610ca5565b34801561049057600080fd5b506102ae61049f366004611d3d565b610cae565b3480156104b057600080fd5b50610281610ce3565b3480156104c557600080fd5b506102f06104d4366004611b53565b610d71565b3480156104e557600080fd5b5061026a610db5565b3480156104fa57600080fd5b5061026a610509366004611d3d565b610dfe565b34801561051a57600080fd5b506102ae610e42565b34801561052f57600080fd5b50610281610e51565b34801561054457600080fd5b5061026a610553366004611c53565b610e60565b34801561056457600080fd5b5061026a610573366004611bda565b610f2e565b34801561058457600080fd5b50610281610f67565b34801561059957600080fd5b506102816105a8366004611d3d565b610f74565b3480156105b957600080fd5b506102f0610ffa565b3480156105ce57600080fd5b506102346105dd366004611b53565b611000565b3480156105ee57600080fd5b5061026a6105fd366004611cf7565b611015565b34801561060e57600080fd5b5061023461061d366004611b6d565b611067565b34801561062e57600080fd5b5061026a61063d366004611b53565b611095565b60006001600160e01b0319821663780e9d6360e01b148061066757506106678261110c565b90505b919050565b61067761114c565b6001600160a01b0316610688610e42565b6001600160a01b0316146106b75760405162461bcd60e51b81526004016106ae90612248565b60405180910390fd5b6010805460ff1916911515919091179055565b6060600080546106d990612496565b80601f016020809104026020016040519081016040528092919081815260200182805461070590612496565b80156107525780601f1061072757610100808354040283529160200191610752565b820191906000526020600020905b81548152906001019060200180831161073557829003601f168201915b5050505050905090565b600061076782611150565b6107835760405162461bcd60e51b81526004016106ae906121fc565b506000908152600460205260409020546001600160a01b031690565b60006107aa82610cae565b9050806001600160a01b0316836001600160a01b031614156107de5760405162461bcd60e51b81526004016106ae90612315565b806001600160a01b03166107f061114c565b6001600160a01b0316148061080c575061080c8161061d61114c565b6108285760405162461bcd60e51b81526004016106ae906120d7565b610832838361116d565b505050565b600d5481565b60085490565b600f5481565b61085a61085461114c565b826111db565b6108765760405162461bcd60e51b81526004016106ae90612356565b610832838383611260565b600061088c83610d71565b82106108aa5760405162461bcd60e51b81526004016106ae90611ef6565b506001600160a01b03919091166000908152600660209081526040808320938352929052205490565b6108db61114c565b6001600160a01b03166108ec610e42565b6001600160a01b0316146109125760405162461bcd60e51b81526004016106ae90612248565b6001600160a01b03166000908152601160205260409020805460ff19169055565b61093b61114c565b6001600160a01b031661094c610e42565b6001600160a01b0316146109725760405162461bcd60e51b81526004016106ae90612248565b60405133904780156108fc02916000818181858888f1935050505061099657600080fd5b565b60006109a261083d565b60105490915060ff16156109b557600080fd5b600082116109c257600080fd5b600f548211156109d157600080fd5b600e546109de8383612408565b11156109e957600080fd5b6109f1610e42565b6001600160a01b0316336001600160a01b031614610a3f573360009081526011602052604090205460ff161515600114610a3f5781600d54610a339190612434565b341015610a3f57600080fd5b60015b828111610a6e57610a5c84610a578385612408565b61138d565b80610a66816124d1565b915050610a42565b50505050565b61083283838360405180602001604052806000815250610f2e565b60606000610a9c83610d71565b905060008167ffffffffffffffff811115610ac757634e487b7160e01b600052604160045260246000fd5b604051908082528060200260200182016040528015610af0578160200160208202803683370190505b50905060005b82811015610b4557610b088582610881565b828281518110610b2857634e487b7160e01b600052603260045260246000fd5b602090810291909101015280610b3d816124d1565b915050610af6565b509392505050565b610b5561114c565b6001600160a01b0316610b66610e42565b6001600160a01b031614610b8c5760405162461bcd60e51b81526004016106ae90612248565b600d55565b610b9961114c565b6001600160a01b0316610baa610e42565b6001600160a01b031614610bd05760405162461bcd60e51b81526004016106ae90612248565b6001600160a01b03166000908152601160205260409020805460ff19166001179055565b6000610bfe61083d565b8210610c1c5760405162461bcd60e51b81526004016106ae906123a7565b60088281548110610c3d57634e487b7160e01b600052603260045260246000fd5b90600052602060002001549050919050565b610c5761114c565b6001600160a01b0316610c68610e42565b6001600160a01b031614610c8e5760405162461bcd60e51b81526004016106ae90612248565b8051610ca190600b906020840190611a23565b5050565b60105460ff1681565b6000818152600260205260408120546001600160a01b0316806106675760405162461bcd60e51b81526004016106ae9061217e565b600b8054610cf090612496565b80601f0160208091040260200160405190810160405280929190818152602001828054610d1c90612496565b8015610d695780601f10610d3e57610100808354040283529160200191610d69565b820191906000526020600020905b815481529060010190602001808311610d4c57829003601f168201915b505050505081565b60006001600160a01b038216610d995760405162461bcd60e51b81526004016106ae90612134565b506001600160a01b031660009081526003602052604090205490565b610dbd61114c565b6001600160a01b0316610dce610e42565b6001600160a01b031614610df45760405162461bcd60e51b81526004016106ae90612248565b61099660006113a7565b610e0661114c565b6001600160a01b0316610e17610e42565b6001600160a01b031614610e3d5760405162461bcd60e51b81526004016106ae90612248565b600f55565b600a546001600160a01b031690565b6060600180546106d990612496565b610e6861114c565b6001600160a01b0316826001600160a01b03161415610e995760405162461bcd60e51b81526004016106ae90612054565b8060056000610ea661114c565b6001600160a01b03908116825260208083019390935260409182016000908120918716808252919093529120805460ff191692151592909217909155610eea61114c565b6001600160a01b03167f17307eab39ab6107e8899845ad3d59bd9653f200f220920489ca2b5937696c3183604051610f229190611ed8565b60405180910390a35050565b610f3f610f3961114c565b836111db565b610f5b5760405162461bcd60e51b81526004016106ae90612356565b610a6e848484846113f9565b600c8054610cf090612496565b6060610f7f82611150565b610f9b5760405162461bcd60e51b81526004016106ae906122c6565b6000610fa561142c565b90506000815111610fc55760405180602001604052806000815250610ff3565b80610fcf8461143b565b600c604051602001610fe393929190611d81565b6040516020818303038152906040525b9392505050565b600e5481565b60116020526000908152604090205460ff1681565b61101d61114c565b6001600160a01b031661102e610e42565b6001600160a01b0316146110545760405162461bcd60e51b81526004016106ae90612248565b8051610ca190600c906020840190611a23565b6001600160a01b03918216600090815260056020908152604080832093909416825291909152205460ff1690565b61109d61114c565b6001600160a01b03166110ae610e42565b6001600160a01b0316146110d45760405162461bcd60e51b81526004016106ae90612248565b6001600160a01b0381166110fa5760405162461bcd60e51b81526004016106ae90611f93565b611103816113a7565b50565b3b151590565b60006001600160e01b031982166380ac58cd60e01b148061113d57506001600160e01b03198216635b5e139f60e01b145b80610667575061066782611556565b3390565b6000908152600260205260409020546001600160a01b0316151590565b600081815260046020526040902080546001600160a01b0319166001600160a01b03841690811790915581906111a282610cae565b6001600160a01b03167f8c5be1e5ebec7d5bd14f71427d1e84f3dd0314c0f7b2291e5b200ac8c7c3b92560405160405180910390a45050565b60006111e682611150565b6112025760405162461bcd60e51b81526004016106ae9061208b565b600061120d83610cae565b9050806001600160a01b0316846001600160a01b031614806112485750836001600160a01b031661123d8461075c565b6001600160a01b0316145b8061125857506112588185611067565b949350505050565b826001600160a01b031661127382610cae565b6001600160a01b0316146112995760405162461bcd60e51b81526004016106ae9061227d565b6001600160a01b0382166112bf5760405162461bcd60e51b81526004016106ae90612010565b6112ca83838361156f565b6112d560008261116d565b6001600160a01b03831660009081526003602052604081208054600192906112fe908490612453565b90915550506001600160a01b038216600090815260036020526040812080546001929061132c908490612408565b909155505060008181526002602052604080822080546001600160a01b0319166001600160a01b0386811691821790925591518493918716917fddf252ad1be2c89b69c2b068fc378daa952ba7f163c4a11628f55a4df523b3ef91a4505050565b610ca18282604051806020016040528060008152506115f8565b600a80546001600160a01b038381166001600160a01b0319831681179093556040519116919082907f8be0079c531659141344cd1fd0a4f28419497f9722a3daafe3b4186f6b6457e090600090a35050565b611404848484611260565b6114108484848461162b565b610a6e5760405162461bcd60e51b81526004016106ae90611f41565b6060600b80546106d990612496565b60608161146057506040805180820190915260018152600360fc1b602082015261066a565b8160005b811561148a5780611474816124d1565b91506114839050600a83612420565b9150611464565b60008167ffffffffffffffff8111156114b357634e487b7160e01b600052604160045260246000fd5b6040519080825280601f01601f1916602001820160405280156114dd576020820181803683370190505b5090505b8415611258576114f2600183612453565b91506114ff600a866124ec565b61150a906030612408565b60f81b81838151811061152d57634e487b7160e01b600052603260045260246000fd5b60200101906001600160f81b031916908160001a90535061154f600a86612420565b94506114e1565b6001600160e01b031981166301ffc9a760e01b14919050565b61157a838383610832565b6001600160a01b0383166115965761159181611746565b6115b9565b816001600160a01b0316836001600160a01b0316146115b9576115b9838261178a565b6001600160a01b0382166115d5576115d081611827565b610832565b826001600160a01b0316826001600160a01b031614610832576108328282611900565b6116028383611944565b61160f600084848461162b565b6108325760405162461bcd60e51b81526004016106ae90611f41565b600061163f846001600160a01b0316611106565b1561173b57836001600160a01b031663150b7a0261165b61114c565b8786866040518563ffffffff1660e01b815260040161167d9493929190611e57565b602060405180830381600087803b15801561169757600080fd5b505af19250505080156116c7575060408051601f3d908101601f191682019092526116c491810190611cdb565b60015b611721573d8080156116f5576040519150601f19603f3d011682016040523d82523d6000602084013e6116fa565b606091505b5080516117195760405162461bcd60e51b81526004016106ae90611f41565b805181602001fd5b6001600160e01b031916630a85bd0160e11b149050611258565b506001949350505050565b600880546000838152600960205260408120829055600182018355919091527ff3f7a9fe364faab93b216da50a3214154f22a0a2b415b23a84c8169e8b636ee30155565b6000600161179784610d71565b6117a19190612453565b6000838152600760205260409020549091508082146117f4576001600160a01b03841660009081526006602090815260408083208584528252808320548484528184208190558352600790915290208190555b5060009182526007602090815260408084208490556001600160a01b039094168352600681528383209183525290812055565b60085460009061183990600190612453565b6000838152600960205260408120546008805493945090928490811061186f57634e487b7160e01b600052603260045260246000fd5b90600052602060002001549050806008838154811061189e57634e487b7160e01b600052603260045260246000fd5b60009182526020808320909101929092558281526009909152604080822084905585825281205560088054806118e457634e487b7160e01b600052603160045260246000fd5b6001900381819060005260206000200160009055905550505050565b600061190b83610d71565b6001600160a01b039093166000908152600660209081526040808320868452825280832085905593825260079052919091209190915550565b6001600160a01b03821661196a5760405162461bcd60e51b81526004016106ae906121c7565b61197381611150565b156119905760405162461bcd60e51b81526004016106ae90611fd9565b61199c6000838361156f565b6001600160a01b03821660009081526003602052604081208054600192906119c5908490612408565b909155505060008181526002602052604080822080546001600160a01b0319166001600160a01b03861690811790915590518392907fddf252ad1be2c89b69c2b068fc378daa952ba7f163c4a11628f55a4df523b3ef908290a45050565b828054611a2f90612496565b90600052602060002090601f016020900481019282611a515760008555611a97565b82601f10611a6a57805160ff1916838001178555611a97565b82800160010185558215611a97579182015b82811115611a97578251825591602001919060010190611a7c565b50611aa3929150611aa7565b5090565b5b80821115611aa35760008155600101611aa8565b600067ffffffffffffffff80841115611ad757611ad761252c565b604051601f8501601f191681016020018281118282101715611afb57611afb61252c565b604052848152915081838501861015611b1357600080fd5b8484602083013760006020868301015250509392505050565b80356001600160a01b038116811461066a57600080fd5b8035801515811461066a57600080fd5b600060208284031215611b64578081fd5b610ff382611b2c565b60008060408385031215611b7f578081fd5b611b8883611b2c565b9150611b9660208401611b2c565b90509250929050565b600080600060608486031215611bb3578081fd5b611bbc84611b2c565b9250611bca60208501611b2c565b9150604084013590509250925092565b60008060008060808587031215611bef578081fd5b611bf885611b2c565b9350611c0660208601611b2c565b925060408501359150606085013567ffffffffffffffff811115611c28578182fd5b8501601f81018713611c38578182fd5b611c4787823560208401611abc565b91505092959194509250565b60008060408385031215611c65578182fd5b611c6e83611b2c565b9150611b9660208401611b43565b60008060408385031215611c8e578182fd5b611c9783611b2c565b946020939093013593505050565b600060208284031215611cb6578081fd5b610ff382611b43565b600060208284031215611cd0578081fd5b8135610ff381612542565b600060208284031215611cec578081fd5b8151610ff381612542565b600060208284031215611d08578081fd5b813567ffffffffffffffff811115611d1e578182fd5b8201601f81018413611d2e578182fd5b61125884823560208401611abc565b600060208284031215611d4e578081fd5b5035919050565b60008151808452611d6d81602086016020860161246a565b601f01601f19169290920160200192915050565b600084516020611d948285838a0161246a565b855191840191611da78184848a0161246a565b8554920191839060028104600180831680611dc357607f831692505b858310811415611de157634e487b7160e01b88526022600452602488fd5b808015611df55760018114611e0657611e32565b60ff19851688528388019550611e32565b611e0f8b6123fc565b895b85811015611e2a5781548a820152908401908801611e11565b505083880195505b50939b9a5050505050505050505050565b6001600160a01b0391909116815260200190565b6001600160a01b0385811682528416602082015260408101839052608060608201819052600090611e8a90830184611d55565b9695505050505050565b6020808252825182820181905260009190848201906040850190845b81811015611ecc57835183529284019291840191600101611eb0565b50909695505050505050565b901515815260200190565b600060208252610ff36020830184611d55565b6020808252602b908201527f455243373231456e756d657261626c653a206f776e657220696e646578206f7560408201526a74206f6620626f756e647360a81b606082015260800190565b60208082526032908201527f4552433732313a207472616e7366657220746f206e6f6e20455243373231526560408201527131b2b4bb32b91034b6b83632b6b2b73a32b960711b606082015260800190565b60208082526026908201527f4f776e61626c653a206e6577206f776e657220697320746865207a65726f206160408201526564647265737360d01b606082015260800190565b6020808252601c908201527f4552433732313a20746f6b656e20616c7265616479206d696e74656400000000604082015260600190565b60208082526024908201527f4552433732313a207472616e7366657220746f20746865207a65726f206164646040820152637265737360e01b606082015260800190565b60208082526019908201527f4552433732313a20617070726f766520746f2063616c6c657200000000000000604082015260600190565b6020808252602c908201527f4552433732313a206f70657261746f7220717565727920666f72206e6f6e657860408201526b34b9ba32b73a103a37b5b2b760a11b606082015260800190565b60208082526038908201527f4552433732313a20617070726f76652063616c6c6572206973206e6f74206f7760408201527f6e6572206e6f7220617070726f76656420666f7220616c6c0000000000000000606082015260800190565b6020808252602a908201527f4552433732313a2062616c616e636520717565727920666f7220746865207a65604082015269726f206164647265737360b01b606082015260800190565b60208082526029908201527f4552433732313a206f776e657220717565727920666f72206e6f6e657869737460408201526832b73a103a37b5b2b760b91b606082015260800190565b6020808252818101527f4552433732313a206d696e7420746f20746865207a65726f2061646472657373604082015260600190565b6020808252602c908201527f4552433732313a20617070726f76656420717565727920666f72206e6f6e657860408201526b34b9ba32b73a103a37b5b2b760a11b606082015260800190565b6020808252818101527f4f776e61626c653a2063616c6c6572206973206e6f7420746865206f776e6572604082015260600190565b60208082526029908201527f4552433732313a207472616e73666572206f6620746f6b656e2074686174206960408201526839903737ba1037bbb760b91b606082015260800190565b6020808252602f908201527f4552433732314d657461646174613a2055524920717565727920666f72206e6f60408201526e3732bc34b9ba32b73a103a37b5b2b760891b606082015260800190565b60208082526021908201527f4552433732313a20617070726f76616c20746f2063757272656e74206f776e656040820152603960f91b606082015260800190565b60208082526031908201527f4552433732313a207472616e736665722063616c6c6572206973206e6f74206f6040820152701ddb995c881b9bdc88185c1c1c9bdd9959607a1b606082015260800190565b6020808252602c908201527f455243373231456e756d657261626c653a20676c6f62616c20696e646578206f60408201526b7574206f6620626f756e647360a01b606082015260800190565b90815260200190565b60009081526020902090565b6000821982111561241b5761241b612500565b500190565b60008261242f5761242f612516565b500490565b600081600019048311821515161561244e5761244e612500565b500290565b60008282101561246557612465612500565b500390565b60005b8381101561248557818101518382015260200161246d565b83811115610a6e5750506000910152565b6002810460018216806124aa57607f821691505b602082108114156124cb57634e487b7160e01b600052602260045260246000fd5b50919050565b60006000198214156124e5576124e5612500565b5060010190565b6000826124fb576124fb612516565b500690565b634e487b7160e01b600052601160045260246000fd5b634e487b7160e01b600052601260045260246000fd5b634e487b7160e01b600052604160045260246000fd5b6001600160e01b03198116811461110357600080fdfea2646970667358221220c97e4c1005eb3b895778fe309f273cf38ed2d75cc68c63b638c6ca9a67df50f764736f6c63430008000033",
  "immutableReferences": {},
  "source": "// SPDX-License-Identifier: GPL-3.0\r\npragma solidity ^0.8.0;\r\n\r\nimport \"@openzeppelin/contracts/token/ERC721/extensions/ERC721Enumerable.sol\";\r\nimport \"@openzeppelin/contracts/access/Ownable.sol\";\r\n\r\ncontract SmartContract is ERC721Enumerable, Ownable {\r\n  using Strings for uint256;\r\n\r\n  string public baseURI;\r\n  string public baseExtension = \".json\";\r\n  uint256 public cost = 100 ether;\r\n  uint256 public maxSupply = 1000;\r\n  uint256 public maxMintAmount = 20;\r\n  bool public paused = false;\r\n  mapping(address => bool) public whitelisted;\r\n\r\n  constructor(\r\n    string memory _name,\r\n    string memory _symbol,\r\n    string memory _initBaseURI\r\n  ) ERC721(_name, _symbol) {\r\n    setBaseURI(_initBaseURI);\r\n    mint(msg.sender, 5);\r\n  }\r\n\r\n  // internal\r\n  function _baseURI() internal view virtual override returns (string memory) {\r\n    return baseURI;\r\n  }\r\n\r\n  // public\r\n  function mint(address _to, uint256 _mintAmount) public payable {\r\n    uint256 supply = totalSupply();\r\n    require(!paused);\r\n    require(_mintAmount > 0);\r\n    require(_mintAmount <= maxMintAmount);\r\n    require(supply + _mintAmount <= maxSupply);\r\n\r\n    if (msg.sender != owner()) {\r\n        if(whitelisted[msg.sender] != true) {\r\n          require(msg.value >= cost * _mintAmount);\r\n        }\r\n    }\r\n    \r\n    for (uint256 i = 1; i <= _mintAmount; i++) {\r\n      _safeMint(_to, supply + i);\r\n    }\r\n  }\r\n\r\n  function walletOfOwner(address _owner)\r\n    public\r\n    view\r\n    returns (uint256[] memory)\r\n  {\r\n    uint256 ownerTokenCount = balanceOf(_owner);\r\n    uint256[] memory tokenIds = new uint256[](ownerTokenCount);\r\n    for (uint256 i; i < ownerTokenCount; i++) {\r\n      tokenIds[i] = tokenOfOwnerByIndex(_owner, i);\r\n    }\r\n    return tokenIds;\r\n  }\r\n\r\n  function tokenURI(uint256 tokenId)\r\n    public\r\n    view\r\n    virtual\r\n    override\r\n    returns (string memory)\r\n  {\r\n    require(\r\n      _exists(tokenId),\r\n      \"ERC721Metadata: URI query for nonexistent token\"\r\n    );\r\n\r\n    string memory currentBaseURI = _baseURI();\r\n    return bytes(currentBaseURI).length > 0\r\n        ? string(abi.encodePacked(currentBaseURI, tokenId.toString(), baseExtension))\r\n        : \"\";\r\n  }\r\n\r\n  //only owner\r\n  function setCost(uint256 _newCost) public onlyOwner() {\r\n    cost = _newCost;\r\n  }\r\n\r\n  function setmaxMintAmount(uint256 _newmaxMintAmount) public onlyOwner() {\r\n    maxMintAmount = _newmaxMintAmount;\r\n  }\r\n\r\n  function setBaseURI(string memory _newBaseURI) public onlyOwner {\r\n    baseURI = _newBaseURI;\r\n  }\r\n\r\n  function setBaseExtension(string memory _newBaseExtension) public onlyOwner {\r\n    baseExtension = _newBaseExtension;\r\n  }\r\n\r\n  function pause(bool _state) public onlyOwner {\r\n    paused = _state;\r\n  }\r\n \r\n  function whitelistUser(address _user) public onlyOwner {\r\n    whitelisted[_user] = true;\r\n  }\r\n \r\n  function removeWhitelistUser(address _user) public onlyOwner {\r\n    whitelisted[_user] = false;\r\n  }\r\n\r\n  function withdraw() public payable onlyOwner {\r\n    require(payable(msg.sender).send(address(this).balance));\r\n  }\r\n  \r\n}",
  "sourcePath": "D:\\HashLips\\frontend_base_dapp\\contracts\\SmartContract.sol",
  "compiler": {
    "name": "solc",
    "version": "0.8.0+commit.c7dfd78e.Emscripten.clang"
  },
  "schemaVersion": "3.4.3",
  "updatedAt": "2021-10-01T13:59:05.530Z",
  "networkType": "ethereum",
  "devdoc": {
    "kind": "dev",
    "methods": {
      "approve(address,uint256)": {
        "details": "See {IERC721-approve}."
      },
      "balanceOf(address)": {
        "details": "See {IERC721-balanceOf}."
      },
      "getApproved(uint256)": {
        "details": "See {IERC721-getApproved}."
      },
      "isApprovedForAll(address,address)": {
        "details": "See {IERC721-isApprovedForAll}."
      },
      "name()": {
        "details": "See {IERC721Metadata-name}."
      },
      "owner()": {
        "details": "Returns the address of the current owner."
      },
      "ownerOf(uint256)": {
        "details": "See {IERC721-ownerOf}."
      },
      "renounceOwnership()": {
        "details": "Leaves the contract without owner. It will not be possible to call `onlyOwner` functions anymore. Can only be called by the current owner. NOTE: Renouncing ownership will leave the contract without an owner, thereby removing any functionality that is only available to the owner."
      },
      "safeTransferFrom(address,address,uint256)": {
        "details": "See {IERC721-safeTransferFrom}."
      },
      "safeTransferFrom(address,address,uint256,bytes)": {
        "details": "See {IERC721-safeTransferFrom}."
      },
      "setApprovalForAll(address,bool)": {
        "details": "See {IERC721-setApprovalForAll}."
      },
      "supportsInterface(bytes4)": {
        "details": "See {IERC165-supportsInterface}."
      },
      "symbol()": {
        "details": "See {IERC721Metadata-symbol}."
      },
      "tokenByIndex(uint256)": {
        "details": "See {IERC721Enumerable-tokenByIndex}."
      },
      "tokenOfOwnerByIndex(address,uint256)": {
        "details": "See {IERC721Enumerable-tokenOfOwnerByIndex}."
      },
      "tokenURI(uint256)": {
        "details": "See {IERC721Metadata-tokenURI}."
      },
      "totalSupply()": {
        "details": "See {IERC721Enumerable-totalSupply}."
      },
      "transferFrom(address,address,uint256)": {
        "details": "See {IERC721-transferFrom}."
      },
      "transferOwnership(address)": {
        "details": "Transfers ownership of the contract to a new account (`newOwner`). Can only be called by the current owner."
      }
    },
    "version": 1
  },
  "userdoc": {
    "kind": "user",
    "methods": {},
    "version": 1
  }
}