{
  "contractName": "TinyKiller",
  "abi": [
    {
      "inputs": [
        {
          "internalType": "string",
          "name": "_name",
          "type": "string"
        },
        {
          "internalType": "string",
          "name": "_symbol",
          "type": "string"
        },
        {
          "internalType": "string",
          "name": "_URI",
          "type": "string"
        }
      ],
      "stateMutability": "nonpayable",
      "type": "constructor"
    },
    {
      "anonymous": false,
      "inputs": [
        {
          "indexed": true,
          "internalType": "address",
          "name": "owner",
          "type": "address"
        },
        {
          "indexed": true,
          "internalType": "address",
          "name": "approved",
          "type": "address"
        },
        {
          "indexed": true,
          "internalType": "uint256",
          "name": "tokenId",
          "type": "uint256"
        }
      ],
      "name": "Approval",
      "type": "event"
    },
    {
      "anonymous": false,
      "inputs": [
        {
          "indexed": true,
          "internalType": "address",
          "name": "owner",
          "type": "address"
        },
        {
          "indexed": true,
          "internalType": "address",
          "name": "operator",
          "type": "address"
        },
        {
          "indexed": false,
          "internalType": "bool",
          "name": "approved",
          "type": "bool"
        }
      ],
      "name": "ApprovalForAll",
      "type": "event"
    },
    {
      "anonymous": false,
      "inputs": [
        {
          "indexed": true,
          "internalType": "address",
          "name": "previousOwner",
          "type": "address"
        },
        {
          "indexed": true,
          "internalType": "address",
          "name": "newOwner",
          "type": "address"
        }
      ],
      "name": "OwnershipTransferred",
      "type": "event"
    },
    {
      "anonymous": false,
      "inputs": [
        {
          "indexed": true,
          "internalType": "address",
          "name": "from",
          "type": "address"
        },
        {
          "indexed": true,
          "internalType": "address",
          "name": "to",
          "type": "address"
        },
        {
          "indexed": true,
          "internalType": "uint256",
          "name": "tokenId",
          "type": "uint256"
        }
      ],
      "name": "Transfer",
      "type": "event"
    },
    {
      "anonymous": false,
      "inputs": [
        {
          "indexed": false,
          "internalType": "address",
          "name": "addr",
          "type": "address"
        }
      ],
      "name": "WhitelistedAddressAdded",
      "type": "event"
    },
    {
      "anonymous": false,
      "inputs": [
        {
          "indexed": false,
          "internalType": "address",
          "name": "addr",
          "type": "address"
        }
      ],
      "name": "WhitelistedAddressRemoved",
      "type": "event"
    },
    {
      "inputs": [
        {
          "internalType": "address",
          "name": "addr",
          "type": "address"
        }
      ],
      "name": "addAddressToWhitelist",
      "outputs": [
        {
          "internalType": "bool",
          "name": "success",
          "type": "bool"
        }
      ],
      "stateMutability": "nonpayable",
      "type": "function"
    },
    {
      "inputs": [
        {
          "internalType": "address[]",
          "name": "addrs",
          "type": "address[]"
        }
      ],
      "name": "addAddressesToWhitelist",
      "outputs": [
        {
          "internalType": "bool",
          "name": "success",
          "type": "bool"
        }
      ],
      "stateMutability": "nonpayable",
      "type": "function"
    },
    {
      "inputs": [
        {
          "internalType": "address",
          "name": "to",
          "type": "address"
        },
        {
          "internalType": "uint256",
          "name": "tokenId",
          "type": "uint256"
        }
      ],
      "name": "approve",
      "outputs": [],
      "stateMutability": "nonpayable",
      "type": "function"
    },
    {
      "inputs": [
        {
          "internalType": "address",
          "name": "owner",
          "type": "address"
        }
      ],
      "name": "balanceOf",
      "outputs": [
        {
          "internalType": "uint256",
          "name": "",
          "type": "uint256"
        }
      ],
      "stateMutability": "view",
      "type": "function"
    },
    {
      "inputs": [],
      "name": "baseExtension",
      "outputs": [
        {
          "internalType": "string",
          "name": "",
          "type": "string"
        }
      ],
      "stateMutability": "view",
      "type": "function"
    },
    {
      "inputs": [],
      "name": "baseURI",
      "outputs": [
        {
          "internalType": "string",
          "name": "",
          "type": "string"
        }
      ],
      "stateMutability": "view",
      "type": "function"
    },
    {
      "inputs": [],
      "name": "cost",
      "outputs": [
        {
          "internalType": "uint256",
          "name": "",
          "type": "uint256"
        }
      ],
      "stateMutability": "view",
      "type": "function"
    },
    {
      "inputs": [
        {
          "internalType": "uint256",
          "name": "tokenId",
          "type": "uint256"
        }
      ],
      "name": "getApproved",
      "outputs": [
        {
          "internalType": "address",
          "name": "",
          "type": "address"
        }
      ],
      "stateMutability": "view",
      "type": "function"
    },
    {
      "inputs": [
        {
          "internalType": "address",
          "name": "owner",
          "type": "address"
        },
        {
          "internalType": "address",
          "name": "operator",
          "type": "address"
        }
      ],
      "name": "isApprovedForAll",
      "outputs": [
        {
          "internalType": "bool",
          "name": "",
          "type": "bool"
        }
      ],
      "stateMutability": "view",
      "type": "function"
    },
    {
      "inputs": [],
      "name": "mintPerTransactionAllowed",
      "outputs": [
        {
          "internalType": "uint256",
          "name": "",
          "type": "uint256"
        }
      ],
      "stateMutability": "view",
      "type": "function"
    },
    {
      "inputs": [],
      "name": "name",
      "outputs": [
        {
          "internalType": "string",
          "name": "",
          "type": "string"
        }
      ],
      "stateMutability": "view",
      "type": "function"
    },
    {
      "inputs": [],
      "name": "owner",
      "outputs": [
        {
          "internalType": "address",
          "name": "",
          "type": "address"
        }
      ],
      "stateMutability": "view",
      "type": "function"
    },
    {
      "inputs": [
        {
          "internalType": "uint256",
          "name": "tokenId",
          "type": "uint256"
        }
      ],
      "name": "ownerOf",
      "outputs": [
        {
          "internalType": "address",
          "name": "",
          "type": "address"
        }
      ],
      "stateMutability": "view",
      "type": "function"
    },
    {
      "inputs": [],
      "name": "paused",
      "outputs": [
        {
          "internalType": "bool",
          "name": "",
          "type": "bool"
        }
      ],
      "stateMutability": "view",
      "type": "function"
    },
    {
      "inputs": [
        {
          "internalType": "address",
          "name": "addr",
          "type": "address"
        }
      ],
      "name": "removeAddressFromWhitelist",
      "outputs": [
        {
          "internalType": "bool",
          "name": "success",
          "type": "bool"
        }
      ],
      "stateMutability": "nonpayable",
      "type": "function"
    },
    {
      "inputs": [
        {
          "internalType": "address[]",
          "name": "addrs",
          "type": "address[]"
        }
      ],
      "name": "removeAddressesFromWhitelist",
      "outputs": [
        {
          "internalType": "bool",
          "name": "success",
          "type": "bool"
        }
      ],
      "stateMutability": "nonpayable",
      "type": "function"
    },
    {
      "inputs": [],
      "name": "renounceOwnership",
      "outputs": [],
      "stateMutability": "nonpayable",
      "type": "function"
    },
    {
      "inputs": [
        {
          "internalType": "address",
          "name": "from",
          "type": "address"
        },
        {
          "internalType": "address",
          "name": "to",
          "type": "address"
        },
        {
          "internalType": "uint256",
          "name": "tokenId",
          "type": "uint256"
        }
      ],
      "name": "safeTransferFrom",
      "outputs": [],
      "stateMutability": "nonpayable",
      "type": "function"
    },
    {
      "inputs": [
        {
          "internalType": "address",
          "name": "from",
          "type": "address"
        },
        {
          "internalType": "address",
          "name": "to",
          "type": "address"
        },
        {
          "internalType": "uint256",
          "name": "tokenId",
          "type": "uint256"
        },
        {
          "internalType": "bytes",
          "name": "_data",
          "type": "bytes"
        }
      ],
      "name": "safeTransferFrom",
      "outputs": [],
      "stateMutability": "nonpayable",
      "type": "function"
    },
    {
      "inputs": [
        {
          "internalType": "address",
          "name": "operator",
          "type": "address"
        },
        {
          "internalType": "bool",
          "name": "approved",
          "type": "bool"
        }
      ],
      "name": "setApprovalForAll",
      "outputs": [],
      "stateMutability": "nonpayable",
      "type": "function"
    },
    {
      "inputs": [
        {
          "internalType": "bytes4",
          "name": "interfaceId",
          "type": "bytes4"
        }
      ],
      "name": "supportsInterface",
      "outputs": [
        {
          "internalType": "bool",
          "name": "",
          "type": "bool"
        }
      ],
      "stateMutability": "view",
      "type": "function"
    },
    {
      "inputs": [],
      "name": "symbol",
      "outputs": [
        {
          "internalType": "string",
          "name": "",
          "type": "string"
        }
      ],
      "stateMutability": "view",
      "type": "function"
    },
    {
      "inputs": [
        {
          "internalType": "uint256",
          "name": "index",
          "type": "uint256"
        }
      ],
      "name": "tokenByIndex",
      "outputs": [
        {
          "internalType": "uint256",
          "name": "",
          "type": "uint256"
        }
      ],
      "stateMutability": "view",
      "type": "function"
    },
    {
      "inputs": [
        {
          "internalType": "address",
          "name": "owner",
          "type": "address"
        },
        {
          "internalType": "uint256",
          "name": "index",
          "type": "uint256"
        }
      ],
      "name": "tokenOfOwnerByIndex",
      "outputs": [
        {
          "internalType": "uint256",
          "name": "",
          "type": "uint256"
        }
      ],
      "stateMutability": "view",
      "type": "function"
    },
    {
      "inputs": [],
      "name": "totalMintedId",
      "outputs": [
        {
          "internalType": "uint256[]",
          "name": "",
          "type": "uint256[]"
        }
      ],
      "stateMutability": "view",
      "type": "function"
    },
    {
      "inputs": [],
      "name": "totalSupply",
      "outputs": [
        {
          "internalType": "uint256",
          "name": "",
          "type": "uint256"
        }
      ],
      "stateMutability": "view",
      "type": "function"
    },
    {
      "inputs": [
        {
          "internalType": "address",
          "name": "from",
          "type": "address"
        },
        {
          "internalType": "address",
          "name": "to",
          "type": "address"
        },
        {
          "internalType": "uint256",
          "name": "tokenId",
          "type": "uint256"
        }
      ],
      "name": "transferFrom",
      "outputs": [],
      "stateMutability": "nonpayable",
      "type": "function"
    },
    {
      "inputs": [
        {
          "internalType": "address",
          "name": "newOwner",
          "type": "address"
        }
      ],
      "name": "transferOwnership",
      "outputs": [],
      "stateMutability": "nonpayable",
      "type": "function"
    },
    {
      "inputs": [
        {
          "internalType": "string",
          "name": "",
          "type": "string"
        }
      ],
      "name": "types",
      "outputs": [
        {
          "internalType": "uint256",
          "name": "start",
          "type": "uint256"
        },
        {
          "internalType": "uint256",
          "name": "end",
          "type": "uint256"
        }
      ],
      "stateMutability": "view",
      "type": "function"
    },
    {
      "inputs": [
        {
          "internalType": "address",
          "name": "",
          "type": "address"
        }
      ],
      "name": "whitelist",
      "outputs": [
        {
          "internalType": "bool",
          "name": "",
          "type": "bool"
        }
      ],
      "stateMutability": "view",
      "type": "function"
    },
    {
      "inputs": [
        {
          "internalType": "address",
          "name": "_to",
          "type": "address"
        },
        {
          "internalType": "uint256",
          "name": "_mintAmount",
          "type": "uint256"
        },
        {
          "internalType": "string",
          "name": "_killerType",
          "type": "string"
        }
      ],
      "name": "mint",
      "outputs": [],
      "stateMutability": "payable",
      "type": "function"
    },
    {
      "inputs": [
        {
          "internalType": "string",
          "name": "_type",
          "type": "string"
        }
      ],
      "name": "remainingSupplyByType",
      "outputs": [
        {
          "internalType": "uint256",
          "name": "",
          "type": "uint256"
        }
      ],
      "stateMutability": "view",
      "type": "function"
    },
    {
      "inputs": [
        {
          "internalType": "address",
          "name": "_owner",
          "type": "address"
        }
      ],
      "name": "walletOfOwner",
      "outputs": [
        {
          "internalType": "uint256[]",
          "name": "",
          "type": "uint256[]"
        }
      ],
      "stateMutability": "view",
      "type": "function"
    },
    {
      "inputs": [
        {
          "internalType": "uint256",
          "name": "tokenId",
          "type": "uint256"
        }
      ],
      "name": "tokenURI",
      "outputs": [
        {
          "internalType": "string",
          "name": "",
          "type": "string"
        }
      ],
      "stateMutability": "view",
      "type": "function"
    },
    {
      "inputs": [
        {
          "internalType": "uint256",
          "name": "_newCost",
          "type": "uint256"
        }
      ],
      "name": "setCost",
      "outputs": [],
      "stateMutability": "nonpayable",
      "type": "function"
    },
    {
      "inputs": [
        {
          "internalType": "uint256",
          "name": "_mintPerTransactionAllowed",
          "type": "uint256"
        }
      ],
      "name": "setmaxMintAmount",
      "outputs": [],
      "stateMutability": "nonpayable",
      "type": "function"
    },
    {
      "inputs": [
        {
          "internalType": "string",
          "name": "_newBaseURI",
          "type": "string"
        }
      ],
      "name": "setBaseURI",
      "outputs": [],
      "stateMutability": "nonpayable",
      "type": "function"
    },
    {
      "inputs": [
        {
          "internalType": "string",
          "name": "_newBaseExtension",
          "type": "string"
        }
      ],
      "name": "setBaseExtension",
      "outputs": [],
      "stateMutability": "nonpayable",
      "type": "function"
    },
    {
      "inputs": [
        {
          "internalType": "bool",
          "name": "_state",
          "type": "bool"
        }
      ],
      "name": "pause",
      "outputs": [],
      "stateMutability": "nonpayable",
      "type": "function"
    },
    {
      "inputs": [
        {
          "internalType": "uint256",
          "name": "_asagoStartLimit",
          "type": "uint256"
        },
        {
          "internalType": "uint256",
          "name": "_asagoEndLimit",
          "type": "uint256"
        }
      ],
      "name": "updateAsagoTypeLimits",
      "outputs": [],
      "stateMutability": "nonpayable",
      "type": "function"
    },
    {
      "inputs": [
        {
          "internalType": "uint256",
          "name": "_kajiwaraStartLimit",
          "type": "uint256"
        },
        {
          "internalType": "uint256",
          "name": "_kajiwaraEndLimit",
          "type": "uint256"
        }
      ],
      "name": "updateKajiwaraTypeLimits",
      "outputs": [],
      "stateMutability": "nonpayable",
      "type": "function"
    },
    {
      "inputs": [
        {
          "internalType": "uint256",
          "name": "_kusakiStartLimit",
          "type": "uint256"
        },
        {
          "internalType": "uint256",
          "name": "_kusakiEndLimit",
          "type": "uint256"
        }
      ],
      "name": "updateKusakiTypeLimits",
      "outputs": [],
      "stateMutability": "nonpayable",
      "type": "function"
    },
    {
      "inputs": [
        {
          "internalType": "uint256",
          "name": "_sakedaStartLimit",
          "type": "uint256"
        },
        {
          "internalType": "uint256",
          "name": "_sakedaEndLimit",
          "type": "uint256"
        }
      ],
      "name": "updateSakedaTypeLimits",
      "outputs": [],
      "stateMutability": "nonpayable",
      "type": "function"
    },
    {
      "inputs": [
        {
          "internalType": "uint256",
          "name": "_tozawaStartLimit",
          "type": "uint256"
        },
        {
          "internalType": "uint256",
          "name": "_tozawaEndLimit",
          "type": "uint256"
        }
      ],
      "name": "updateTozawaTypeLimits",
      "outputs": [],
      "stateMutability": "nonpayable",
      "type": "function"
    },
    {
      "inputs": [],
      "name": "withdraw",
      "outputs": [],
      "stateMutability": "payable",
      "type": "function"
    }
  ],
  "bytecode": "0x60c06040526005608081905264173539b7b760d91b60a09081526200002891600d91906200042a565b50662386f26fc10000600e556014600f8190556010805460ff1916905560016012556107d06013556107d19055610fa0601555610fa1601655611770601755611771601855611f40601955611f41601a55612710601b553480156200008c57600080fd5b50604051620036a3380380620036a3833981016040819052620000af916200057b565b825183908390620000c89060009060208501906200042a565b508051620000de9060019060208401906200042a565b5050506000620000f3620002e060201b60201c565b600a80546001600160a01b0319166001600160a01b038316908117909155604051919250906000907f8be0079c531659141344cd1fd0a4f28419497f9722a3daafe3b4186f6b6457e0908290a3506012546011604051620001549062000608565b9081526040519081900360200181209190915560135490601190620001799062000608565b9081526020016040518091039020600101819055506014546011604051620001a1906200063d565b9081526040519081900360200181209190915560155490601190620001c6906200063d565b9081526020016040518091039020600101819055506016546011604051620001ee9062000651565b9081526040519081900360200181209190915560175490601190620002139062000651565b90815260200160405180910390206001018190555060185460116040516200023b9062000619565b9081526040519081900360200181209190915560195490601190620002609062000619565b908152602001604051809103902060010181905550601a54601160405162000288906200062b565b90815260405190819003602001812091909155601b5490601190620002ad906200062b565b90815260405190819003602001902060010155620002cb81620002e4565b620002d6336200034c565b50505050620006ff565b3390565b620002ee620002e0565b6001600160a01b0316620003016200041b565b6001600160a01b031614620003335760405162461bcd60e51b81526004016200032a9062000677565b60405180910390fd5b80516200034890600c9060208401906200042a565b5050565b600062000358620002e0565b6001600160a01b03166200036b6200041b565b6001600160a01b031614620003945760405162461bcd60e51b81526004016200032a9062000677565b6001600160a01b0382166000908152600b602052604090205460ff1662000416576001600160a01b0382166000908152600b602052604090819020805460ff19166001179055517fd1bba68c128cc3f427e5831b3c6f99f480b6efa6b9e80c757768f6124158cc3f906200040a90849062000663565b60405180910390a15060015b919050565b600a546001600160a01b031690565b8280546200043890620006ac565b90600052602060002090601f0160209004810192826200045c5760008555620004a7565b82601f106200047757805160ff1916838001178555620004a7565b82800160010185558215620004a7579182015b82811115620004a75782518255916020019190600101906200048a565b50620004b5929150620004b9565b5090565b5b80821115620004b55760008155600101620004ba565b600082601f830112620004e1578081fd5b81516001600160401b0380821115620004fe57620004fe620006e9565b6040516020601f8401601f1916820181018381118382101715620005265762000526620006e9565b60405283825285840181018710156200053d578485fd5b8492505b8383101562000560578583018101518284018201529182019162000541565b838311156200057157848185840101525b5095945050505050565b60008060006060848603121562000590578283fd5b83516001600160401b0380821115620005a7578485fd5b620005b587838801620004d0565b94506020860151915080821115620005cb578384fd5b620005d987838801620004d0565b93506040860151915080821115620005ef578283fd5b50620005fe86828701620004d0565b9150509250925092565b64415341474f60d81b815260050190565b6553414b45444160d01b815260060190565b65544f5a41574160d01b815260060190565b674b414a495741524160c01b815260080190565b654b5553414b4960d01b815260060190565b6001600160a01b0391909116815260200190565b6020808252818101527f4f776e61626c653a2063616c6c6572206973206e6f7420746865206f776e6572604082015260600190565b600281046001821680620006c157607f821691505b60208210811415620006e357634e487b7160e01b600052602260045260246000fd5b50919050565b634e487b7160e01b600052604160045260246000fd5b612f94806200070f6000396000f3fe6080604052600436106102725760003560e01c80636352211e1161014f578063ac3f9136116100c1578063d615e15b1161007a578063d615e15b14610713578063da3ef23f14610733578063e2ec6ec314610753578063e985e9c514610773578063f2fde38b14610793578063ff819cad146107b357610272565b8063ac3f913614610681578063b88d4fde14610696578063c6682862146106b6578063c87b56dd146106cb578063ccabb1f1146106eb578063d3fc98641461070057610272565b80637b9417c8116101135780637b9417c8146105d75780637f00c7a6146105f75780638da5cb5b1461061757806395d89b411461062c5780639b19251a14610641578063a22cb4651461066157610272565b80636352211e1461054d5780636394ee6a1461056d5780636c0360eb1461058d57806370a08231146105a2578063715018a6146105c257610272565b8063286dd3f5116101e8578063438b6300116101ac578063438b63001461048b57806344a0d68a146104b857806347e2a574146104d85780634f6ccce7146104f857806355f804b3146105185780635c975abb1461053857610272565b8063286dd3f5146103f55780632f745c591461041557806331ba8c0e146104355780633ccfd60b1461046357806342842e0e1461046b57610272565b8063095ea7b31161023a578063095ea7b31461033e57806312f91c1f1461035e57806313faede61461037e57806318160ddd146103a057806323b872dd146103b557806324953eaa146103d557610272565b806301ffc9a71461027757806302329a29146102ad57806306fdde03146102cf578063081812fc146102f157806308d6284b1461031e575b600080fd5b34801561028357600080fd5b50610297610292366004612513565b6107d3565b6040516102a491906127b1565b60405180910390f35b3480156102b957600080fd5b506102cd6102c83660046124f9565b610800565b005b3480156102db57600080fd5b506102e461085b565b6040516102a491906127bc565b3480156102fd57600080fd5b5061031161030c36600461257e565b6108ed565b6040516102a4919061271c565b34801561032a57600080fd5b506102cd610339366004612596565b610930565b34801561034a57600080fd5b506102cd61035936600461240c565b6109b6565b34801561036a57600080fd5b506102cd610379366004612596565b610a4e565b34801561038a57600080fd5b50610393610abd565b6040516102a49190612de8565b3480156103ac57600080fd5b50610393610ac3565b3480156103c157600080fd5b506102cd6103d036600461232f565b610ac9565b3480156103e157600080fd5b506102976103f036600461248a565b610b01565b34801561040157600080fd5b506102976104103660046122e3565b610ba8565b34801561042157600080fd5b5061039361043036600461240c565b610c6a565b34801561044157600080fd5b5061045561045036600461254b565b610cbc565b6040516102a4929190612df1565b6102cd610ce0565b34801561047757600080fd5b506102cd61048636600461232f565b610d45565b34801561049757600080fd5b506104ab6104a63660046122e3565b610d60565b6040516102a4919061276d565b3480156104c457600080fd5b506102cd6104d336600461257e565b610e1e565b3480156104e457600080fd5b506103936104f336600461254b565b610e62565b34801561050457600080fd5b5061039361051336600461257e565b610eaf565b34801561052457600080fd5b506102cd61053336600461254b565b610f0a565b34801561054457600080fd5b50610297610f60565b34801561055957600080fd5b5061031161056836600461257e565b610f69565b34801561057957600080fd5b506102cd610588366004612596565b610f9e565b34801561059957600080fd5b506102e461100d565b3480156105ae57600080fd5b506103936105bd3660046122e3565b61109b565b3480156105ce57600080fd5b506102cd6110df565b3480156105e357600080fd5b506102976105f23660046122e3565b611168565b34801561060357600080fd5b506102cd61061236600461257e565b61121c565b34801561062357600080fd5b50610311611260565b34801561063857600080fd5b506102e461126f565b34801561064d57600080fd5b5061029761065c3660046122e3565b61127e565b34801561066d57600080fd5b506102cd61067c3660046123e3565b611293565b34801561068d57600080fd5b506104ab611361565b3480156106a257600080fd5b506102cd6106b136600461236a565b6113b8565b3480156106c257600080fd5b506102e46113f7565b3480156106d757600080fd5b506102e46106e636600461257e565b611404565b3480156106f757600080fd5b5061039361148a565b6102cd61070e366004612435565b611490565b34801561071f57600080fd5b506102cd61072e366004612596565b61160a565b34801561073f57600080fd5b506102cd61074e36600461254b565b611679565b34801561075f57600080fd5b5061029761076e36600461248a565b6116cb565b34801561077f57600080fd5b5061029761078e3660046122fd565b61176b565b34801561079f57600080fd5b506102cd6107ae3660046122e3565b611799565b3480156107bf57600080fd5b506102cd6107ce366004612596565b61185a565b60006001600160e01b0319821663780e9d6360e01b14806107f857506107f8826118c9565b90505b919050565b610808611909565b6001600160a01b0316610819611260565b6001600160a01b0316146108485760405162461bcd60e51b815260040161083f90612b63565b60405180910390fd5b6010805460ff1916911515919091179055565b60606000805461086a90612e99565b80601f016020809104026020016040519081016040528092919081815260200182805461089690612e99565b80156108e35780601f106108b8576101008083540402835291602001916108e3565b820191906000526020600020905b8154815290600101906020018083116108c657829003601f168201915b5050505050905090565b60006108f88261190d565b6109145760405162461bcd60e51b815260040161083f90612b17565b506000908152600460205260409020546001600160a01b031690565b610938611909565b6001600160a01b0316610949611260565b6001600160a01b03161461096f5760405162461bcd60e51b815260040161083f90612b63565b81601160405161097e9061270a565b90815260405190819003602001812091909155819060119061099f9061270a565b908152604051908190036020019020600101555050565b60006109c182610f69565b9050806001600160a01b0316836001600160a01b031614156109f55760405162461bcd60e51b815260040161083f90612c30565b806001600160a01b0316610a07611909565b6001600160a01b03161480610a235750610a238161078e611909565b610a3f5760405162461bcd60e51b815260040161083f906129b0565b610a49838361192a565b505050565b610a56611909565b6001600160a01b0316610a67611260565b6001600160a01b031614610a8d5760405162461bcd60e51b815260040161083f90612b63565b816011604051610a9c906126d2565b90815260405190819003602001812091909155819060119061099f906126d2565b600e5481565b60085490565b610ada610ad4611909565b82611998565b610af65760405162461bcd60e51b815260040161083f90612cd8565b610a49838383611a1d565b6000610b0b611909565b6001600160a01b0316610b1c611260565b6001600160a01b031614610b425760405162461bcd60e51b815260040161083f90612b63565b60005b82811015610ba157610b85848483818110610b7057634e487b7160e01b600052603260045260246000fd5b905060200201602081019061041091906122e3565b15610b8f57600191505b80610b9981612ed4565b915050610b45565b5092915050565b6000610bb2611909565b6001600160a01b0316610bc3611260565b6001600160a01b031614610be95760405162461bcd60e51b815260040161083f90612b63565b6001600160a01b0382166000908152600b602052604090205460ff16156107fb576001600160a01b0382166000908152600b602052604090819020805460ff19169055517ff1abf01a1043b7c244d128e8595cf0c1d10743b022b03a02dffd8ca3bf729f5a90610c5a90849061271c565b60405180910390a1506001919050565b6000610c758361109b565b8210610c935760405162461bcd60e51b815260040161083f906127cf565b506001600160a01b03919091166000908152600660209081526040808320938352929052205490565b80516020818301810180516011825292820191909301209152805460019091015482565b610ce8611909565b6001600160a01b0316610cf9611260565b6001600160a01b031614610d1f5760405162461bcd60e51b815260040161083f90612b63565b60405133904780156108fc02916000818181858888f19350505050610d4357600080fd5b565b610a49838383604051806020016040528060008152506113b8565b60606000610d6d8361109b565b905060008167ffffffffffffffff811115610d9857634e487b7160e01b600052604160045260246000fd5b604051908082528060200260200182016040528015610dc1578160200160208202803683370190505b50905060005b82811015610e1657610dd98582610c6a565b828281518110610df957634e487b7160e01b600052603260045260246000fd5b602090810291909101015280610e0e81612ed4565b915050610dc7565b509392505050565b610e26611909565b6001600160a01b0316610e37611260565b6001600160a01b031614610e5d5760405162461bcd60e51b815260040161083f90612b63565b600e55565b6000601182604051610e7491906125e3565b9081526040519081900360200181205490601190610e939085906125e3565b9081526020016040518091039020600101546107f89190612e56565b6000610eb9610ac3565b8210610ed75760405162461bcd60e51b815260040161083f90612d54565b60088281548110610ef857634e487b7160e01b600052603260045260246000fd5b90600052602060002001549050919050565b610f12611909565b6001600160a01b0316610f23611260565b6001600160a01b031614610f495760405162461bcd60e51b815260040161083f90612b63565b8051610f5c90600c906020840190612194565b5050565b60105460ff1681565b6000818152600260205260408120546001600160a01b0316806107f85760405162461bcd60e51b815260040161083f90612a57565b610fa6611909565b6001600160a01b0316610fb7611260565b6001600160a01b031614610fdd5760405162461bcd60e51b815260040161083f90612b63565b816011604051610fec906126c1565b90815260405190819003602001812091909155819060119061099f906126c1565b600c805461101a90612e99565b80601f016020809104026020016040519081016040528092919081815260200182805461104690612e99565b80156110935780601f1061106857610100808354040283529160200191611093565b820191906000526020600020905b81548152906001019060200180831161107657829003601f168201915b505050505081565b60006001600160a01b0382166110c35760405162461bcd60e51b815260040161083f90612a0d565b506001600160a01b031660009081526003602052604090205490565b6110e7611909565b6001600160a01b03166110f8611260565b6001600160a01b03161461111e5760405162461bcd60e51b815260040161083f90612b63565b600a546040516000916001600160a01b0316907f8be0079c531659141344cd1fd0a4f28419497f9722a3daafe3b4186f6b6457e0908390a3600a80546001600160a01b0319169055565b6000611172611909565b6001600160a01b0316611183611260565b6001600160a01b0316146111a95760405162461bcd60e51b815260040161083f90612b63565b6001600160a01b0382166000908152600b602052604090205460ff166107fb576001600160a01b0382166000908152600b602052604090819020805460ff19166001179055517fd1bba68c128cc3f427e5831b3c6f99f480b6efa6b9e80c757768f6124158cc3f90610c5a90849061271c565b611224611909565b6001600160a01b0316611235611260565b6001600160a01b03161461125b5760405162461bcd60e51b815260040161083f90612b63565b600f55565b600a546001600160a01b031690565b60606001805461086a90612e99565b600b6020526000908152604090205460ff1681565b61129b611909565b6001600160a01b0316826001600160a01b031614156112cc5760405162461bcd60e51b815260040161083f9061292d565b80600560006112d9611909565b6001600160a01b03908116825260208083019390935260409182016000908120918716808252919093529120805460ff19169215159290921790915561131d611909565b6001600160a01b03167f17307eab39ab6107e8899845ad3d59bd9653f200f220920489ca2b5937696c318360405161135591906127b1565b60405180910390a35050565b606060088054806020026020016040519081016040528092919081815260200182805480156108e357602002820191906000526020600020905b81548152602001906001019080831161139b575050505050905090565b6113c96113c3611909565b83611998565b6113e55760405162461bcd60e51b815260040161083f90612cd8565b6113f184848484611b4a565b50505050565b600d805461101a90612e99565b606061140f8261190d565b61142b5760405162461bcd60e51b815260040161083f90612be1565b6000611435611b7d565b905060008151116114555760405180602001604052806000815250611483565b8061145f84611b8c565b600d604051602001611473939291906125ff565b6040516020818303038152906040525b9392505050565b600f5481565b60105460ff16156114b35760405162461bcd60e51b815260040161083f90612d29565b600082116114d35760405162461bcd60e51b815260040161083f90612aa0565b600f548211156114f55760405162461bcd60e51b815260040161083f90612da0565b60118160405161150591906125e3565b9081526020016040518091039020600101548260118360405161152891906125e3565b908152604051908190036020019020546115429190612e0b565b11156115605760405162461bcd60e51b815260040161083f90612c71565b81600e5461156e9190612e37565b34101561158d5760405162461bcd60e51b815260040161083f90612ca1565b60015b8281116113f1576115c0846011846040516115ab91906125e3565b90815260405190819003602001902054611ca7565b60016011836040516115d291906125e3565b908152602001604051809103902060000160008282546115f29190612e0b565b9091555081905061160281612ed4565b915050611590565b611612611909565b6001600160a01b0316611623611260565b6001600160a01b0316146116495760405162461bcd60e51b815260040161083f90612b63565b816011604051611658906126f6565b90815260405190819003602001812091909155819060119061099f906126f6565b611681611909565b6001600160a01b0316611692611260565b6001600160a01b0316146116b85760405162461bcd60e51b815260040161083f90612b63565b8051610f5c90600d906020840190612194565b60006116d5611909565b6001600160a01b03166116e6611260565b6001600160a01b03161461170c5760405162461bcd60e51b815260040161083f90612b63565b60005b82811015610ba15761174f84848381811061173a57634e487b7160e01b600052603260045260246000fd5b90506020020160208101906105f291906122e3565b1561175957600191505b8061176381612ed4565b91505061170f565b6001600160a01b03918216600090815260056020908152604080832093909416825291909152205460ff1690565b6117a1611909565b6001600160a01b03166117b2611260565b6001600160a01b0316146117d85760405162461bcd60e51b815260040161083f90612b63565b6001600160a01b0381166117fe5760405162461bcd60e51b815260040161083f9061286c565b600a546040516001600160a01b038084169216907f8be0079c531659141344cd1fd0a4f28419497f9722a3daafe3b4186f6b6457e090600090a3600a80546001600160a01b0319166001600160a01b0392909216919091179055565b611862611909565b6001600160a01b0316611873611260565b6001600160a01b0316146118995760405162461bcd60e51b815260040161083f90612b63565b8160116040516118a8906126e4565b90815260405190819003602001812091909155819060119061099f906126e4565b60006001600160e01b031982166380ac58cd60e01b14806118fa57506001600160e01b03198216635b5e139f60e01b145b806107f857506107f882611cc1565b3390565b6000908152600260205260409020546001600160a01b0316151590565b600081815260046020526040902080546001600160a01b0319166001600160a01b038416908117909155819061195f82610f69565b6001600160a01b03167f8c5be1e5ebec7d5bd14f71427d1e84f3dd0314c0f7b2291e5b200ac8c7c3b92560405160405180910390a45050565b60006119a38261190d565b6119bf5760405162461bcd60e51b815260040161083f90612964565b60006119ca83610f69565b9050806001600160a01b0316846001600160a01b03161480611a055750836001600160a01b03166119fa846108ed565b6001600160a01b0316145b80611a155750611a15818561176b565b949350505050565b826001600160a01b0316611a3082610f69565b6001600160a01b031614611a565760405162461bcd60e51b815260040161083f90612b98565b6001600160a01b038216611a7c5760405162461bcd60e51b815260040161083f906128e9565b611a87838383611cda565b611a9260008261192a565b6001600160a01b0383166000908152600360205260408120805460019290611abb908490612e56565b90915550506001600160a01b0382166000908152600360205260408120805460019290611ae9908490612e0b565b909155505060008181526002602052604080822080546001600160a01b0319166001600160a01b0386811691821790925591518493918716917fddf252ad1be2c89b69c2b068fc378daa952ba7f163c4a11628f55a4df523b3ef91a4505050565b611b55848484611a1d565b611b6184848484611d63565b6113f15760405162461bcd60e51b815260040161083f9061281a565b6060600c805461086a90612e99565b606081611bb157506040805180820190915260018152600360fc1b60208201526107fb565b8160005b8115611bdb5780611bc581612ed4565b9150611bd49050600a83612e23565b9150611bb5565b60008167ffffffffffffffff811115611c0457634e487b7160e01b600052604160045260246000fd5b6040519080825280601f01601f191660200182016040528015611c2e576020820181803683370190505b5090505b8415611a1557611c43600183612e56565b9150611c50600a86612eef565b611c5b906030612e0b565b60f81b818381518110611c7e57634e487b7160e01b600052603260045260246000fd5b60200101906001600160f81b031916908160001a905350611ca0600a86612e23565b9450611c32565b610f5c828260405180602001604052806000815250611e7e565b6001600160e01b031981166301ffc9a760e01b14919050565b611ce5838383610a49565b6001600160a01b038316611d0157611cfc81611eb1565b611d24565b816001600160a01b0316836001600160a01b031614611d2457611d248382611ef5565b6001600160a01b038216611d4057611d3b81611f92565b610a49565b826001600160a01b0316826001600160a01b031614610a4957610a49828261206b565b6000611d77846001600160a01b03166120af565b15611e7357836001600160a01b031663150b7a02611d93611909565b8786866040518563ffffffff1660e01b8152600401611db59493929190612730565b602060405180830381600087803b158015611dcf57600080fd5b505af1925050508015611dff575060408051601f3d908101601f19168201909252611dfc9181019061252f565b60015b611e59573d808015611e2d576040519150601f19603f3d011682016040523d82523d6000602084013e611e32565b606091505b508051611e515760405162461bcd60e51b815260040161083f9061281a565b805181602001fd5b6001600160e01b031916630a85bd0160e11b149050611a15565b506001949350505050565b611e8883836120b5565b611e956000848484611d63565b610a495760405162461bcd60e51b815260040161083f9061281a565b600880546000838152600960205260408120829055600182018355919091527ff3f7a9fe364faab93b216da50a3214154f22a0a2b415b23a84c8169e8b636ee30155565b60006001611f028461109b565b611f0c9190612e56565b600083815260076020526040902054909150808214611f5f576001600160a01b03841660009081526006602090815260408083208584528252808320548484528184208190558352600790915290208190555b5060009182526007602090815260408084208490556001600160a01b039094168352600681528383209183525290812055565b600854600090611fa490600190612e56565b60008381526009602052604081205460088054939450909284908110611fda57634e487b7160e01b600052603260045260246000fd5b90600052602060002001549050806008838154811061200957634e487b7160e01b600052603260045260246000fd5b600091825260208083209091019290925582815260099091526040808220849055858252812055600880548061204f57634e487b7160e01b600052603160045260246000fd5b6001900381819060005260206000200160009055905550505050565b60006120768361109b565b6001600160a01b039093166000908152600660209081526040808320868452825280832085905593825260079052919091209190915550565b3b151590565b6001600160a01b0382166120db5760405162461bcd60e51b815260040161083f90612ae2565b6120e48161190d565b156121015760405162461bcd60e51b815260040161083f906128b2565b61210d60008383611cda565b6001600160a01b0382166000908152600360205260408120805460019290612136908490612e0b565b909155505060008181526002602052604080822080546001600160a01b0319166001600160a01b03861690811790915590518392907fddf252ad1be2c89b69c2b068fc378daa952ba7f163c4a11628f55a4df523b3ef908290a45050565b8280546121a090612e99565b90600052602060002090601f0160209004810192826121c25760008555612208565b82601f106121db57805160ff1916838001178555612208565b82800160010185558215612208579182015b828111156122085782518255916020019190600101906121ed565b50612214929150612218565b5090565b5b808211156122145760008155600101612219565b600067ffffffffffffffff8084111561224857612248612f2f565b604051601f8501601f19168101602001828111828210171561226c5761226c612f2f565b60405284815291508183850186101561228457600080fd5b8484602083013760006020868301015250509392505050565b80356001600160a01b03811681146107fb57600080fd5b803580151581146107fb57600080fd5b600082601f8301126122d4578081fd5b6114838383356020850161222d565b6000602082840312156122f4578081fd5b6114838261229d565b6000806040838503121561230f578081fd5b6123188361229d565b91506123266020840161229d565b90509250929050565b600080600060608486031215612343578081fd5b61234c8461229d565b925061235a6020850161229d565b9150604084013590509250925092565b6000806000806080858703121561237f578081fd5b6123888561229d565b93506123966020860161229d565b925060408501359150606085013567ffffffffffffffff8111156123b8578182fd5b8501601f810187136123c8578182fd5b6123d78782356020840161222d565b91505092959194509250565b600080604083850312156123f5578182fd5b6123fe8361229d565b9150612326602084016122b4565b6000806040838503121561241e578182fd5b6124278361229d565b946020939093013593505050565b600080600060608486031215612449578283fd5b6124528461229d565b925060208401359150604084013567ffffffffffffffff811115612474578182fd5b612480868287016122c4565b9150509250925092565b6000806020838503121561249c578182fd5b823567ffffffffffffffff808211156124b3578384fd5b818501915085601f8301126124c6578384fd5b8135818111156124d4578485fd5b86602080830285010111156124e7578485fd5b60209290920196919550909350505050565b60006020828403121561250a578081fd5b611483826122b4565b600060208284031215612524578081fd5b813561148381612f45565b600060208284031215612540578081fd5b815161148381612f45565b60006020828403121561255c578081fd5b813567ffffffffffffffff811115612572578182fd5b611a15848285016122c4565b60006020828403121561258f578081fd5b5035919050565b600080604083850312156125a8578081fd5b50508035926020909101359150565b600081518084526125cf816020860160208601612e6d565b601f01601f19169290920160200192915050565b600082516125f5818460208701612e6d565b9190910192915050565b6000845160206126128285838a01612e6d565b8551918401916126258184848a01612e6d565b855492019183906002810460018083168061264157607f831692505b85831081141561265f57634e487b7160e01b88526022600452602488fd5b8080156126735760018114612684576126b0565b60ff198516885283880195506126b0565b61268d8b612dff565b895b858110156126a85781548a82015290840190880161268f565b505083880195505b50939b9a5050505050505050505050565b64415341474f60d81b815260050190565b6553414b45444160d01b815260060190565b65544f5a41574160d01b815260060190565b674b414a495741524160c01b815260080190565b654b5553414b4960d01b815260060190565b6001600160a01b0391909116815260200190565b6001600160a01b0385811682528416602082015260408101839052608060608201819052600090612763908301846125b7565b9695505050505050565b6020808252825182820181905260009190848201906040850190845b818110156127a557835183529284019291840191600101612789565b50909695505050505050565b901515815260200190565b60006020825261148360208301846125b7565b6020808252602b908201527f455243373231456e756d657261626c653a206f776e657220696e646578206f7560408201526a74206f6620626f756e647360a81b606082015260800190565b60208082526032908201527f4552433732313a207472616e7366657220746f206e6f6e20455243373231526560408201527131b2b4bb32b91034b6b83632b6b2b73a32b960711b606082015260800190565b60208082526026908201527f4f776e61626c653a206e6577206f776e657220697320746865207a65726f206160408201526564647265737360d01b606082015260800190565b6020808252601c908201527f4552433732313a20746f6b656e20616c7265616479206d696e74656400000000604082015260600190565b60208082526024908201527f4552433732313a207472616e7366657220746f20746865207a65726f206164646040820152637265737360e01b606082015260800190565b60208082526019908201527f4552433732313a20617070726f766520746f2063616c6c657200000000000000604082015260600190565b6020808252602c908201527f4552433732313a206f70657261746f7220717565727920666f72206e6f6e657860408201526b34b9ba32b73a103a37b5b2b760a11b606082015260800190565b60208082526038908201527f4552433732313a20617070726f76652063616c6c6572206973206e6f74206f7760408201527f6e6572206e6f7220617070726f76656420666f7220616c6c0000000000000000606082015260800190565b6020808252602a908201527f4552433732313a2062616c616e636520717565727920666f7220746865207a65604082015269726f206164647265737360b01b606082015260800190565b60208082526029908201527f4552433732313a206f776e657220717565727920666f72206e6f6e657869737460408201526832b73a103a37b5b2b760b91b606082015260800190565b60208082526022908201527f416d6f756e742073686f756c642062652067726561746572207468616e207a65604082015261726f60f01b606082015260800190565b6020808252818101527f4552433732313a206d696e7420746f20746865207a65726f2061646472657373604082015260600190565b6020808252602c908201527f4552433732313a20617070726f76656420717565727920666f72206e6f6e657860408201526b34b9ba32b73a103a37b5b2b760a11b606082015260800190565b6020808252818101527f4f776e61626c653a2063616c6c6572206973206e6f7420746865206f776e6572604082015260600190565b60208082526029908201527f4552433732313a207472616e73666572206f6620746f6b656e2074686174206960408201526839903737ba1037bbb760b91b606082015260800190565b6020808252602f908201527f4552433732314d657461646174613a2055524920717565727920666f72206e6f60408201526e3732bc34b9ba32b73a103a37b5b2b760891b606082015260800190565b60208082526021908201527f4552433732313a20617070726f76616c20746f2063757272656e74206f776e656040820152603960f91b606082015260800190565b60208082526016908201527545786365656473206d6178696d756d20737570706c7960501b604082015260600190565b60208082526019908201527f45746865722073656e74206973206e6f7420636f727265637400000000000000604082015260600190565b60208082526031908201527f4552433732313a207472616e736665722063616c6c6572206973206e6f74206f6040820152701ddb995c881b9bdc88185c1c1c9bdd9959607a1b606082015260800190565b602080825260119082015270135a5b9d1a5b99c81a5cc81c185d5cd959607a1b604082015260600190565b6020808252602c908201527f455243373231456e756d657261626c653a20676c6f62616c20696e646578206f60408201526b7574206f6620626f756e647360a01b606082015260800190565b60208082526028908201527f596f752063616e206d696e742061206d6178696d756d206f66203230204e4654604082015267206174206f6e636560c01b606082015260800190565b90815260200190565b918252602082015260400190565b60009081526020902090565b60008219821115612e1e57612e1e612f03565b500190565b600082612e3257612e32612f19565b500490565b6000816000190483118215151615612e5157612e51612f03565b500290565b600082821015612e6857612e68612f03565b500390565b60005b83811015612e88578181015183820152602001612e70565b838111156113f15750506000910152565b600281046001821680612ead57607f821691505b60208210811415612ece57634e487b7160e01b600052602260045260246000fd5b50919050565b6000600019821415612ee857612ee8612f03565b5060010190565b600082612efe57612efe612f19565b500690565b634e487b7160e01b600052601160045260246000fd5b634e487b7160e01b600052601260045260246000fd5b634e487b7160e01b600052604160045260246000fd5b6001600160e01b031981168114612f5b57600080fd5b5056fea2646970667358221220982bf0ace295b5eb55a672e69da567f5e63351c4611a66726578fc52a65b3e2c64736f6c63430008000033",
  "immutableReferences": {},
  "source": "// SPDX-License-Identifier: GPL-3.0\npragma solidity >=0.7.0 <0.9.0;\n\ninterface IERC165 {\n    /**\n     * @dev Returns true if this contract implements the interface defined by\n     * `interfaceId`. See the corresponding\n     * https://eips.ethereum.org/EIPS/eip-165#how-interfaces-are-identified[EIP section]\n     * to learn more about how these ids are created.\n     *\n     * This function call must use less than 30 000 gas.\n     */\n    function supportsInterface(bytes4 interfaceId) external view returns (bool);\n}\n\nlibrary Strings {\n    bytes16 private constant alphabet = \"0123456789abcdef\";\n\n    /**\n     * @dev Converts a `uint256` to its ASCII `string` decimal representation.\n     */\n    function toString(uint256 value) internal pure returns (string memory) {\n        // Inspired by OraclizeAPI's implementation - MIT licence\n        // https://github.com/oraclize/ethereum-api/blob/b42146b063c7d6ee1358846c198246239e9360e8/oraclizeAPI_0.4.25.sol\n\n        if (value == 0) {\n            return \"0\";\n        }\n        uint256 temp = value;\n        uint256 digits;\n        while (temp != 0) {\n            digits++;\n            temp /= 10;\n        }\n        bytes memory buffer = new bytes(digits);\n        while (value != 0) {\n            digits -= 1;\n            buffer[digits] = bytes1(uint8(48 + uint256(value % 10)));\n            value /= 10;\n        }\n        return string(buffer);\n    }\n\n    /**\n     * @dev Converts a `uint256` to its ASCII `string` hexadecimal representation.\n     */\n    function toHexString(uint256 value) internal pure returns (string memory) {\n        if (value == 0) {\n            return \"0x00\";\n        }\n        uint256 temp = value;\n        uint256 length = 0;\n        while (temp != 0) {\n            length++;\n            temp >>= 8;\n        }\n        return toHexString(value, length);\n    }\n\n    /**\n     * @dev Converts a `uint256` to its ASCII `string` hexadecimal representation with fixed length.\n     */\n    function toHexString(uint256 value, uint256 length) internal pure returns (string memory) {\n        bytes memory buffer = new bytes(2 * length + 2);\n        buffer[0] = \"0\";\n        buffer[1] = \"x\";\n        for (uint256 i = 2 * length + 1; i > 1; --i) {\n            buffer[i] = alphabet[value & 0xf];\n            value >>= 4;\n        }\n        require(value == 0, \"Strings: hex length insufficient\");\n        return string(buffer);\n    }\n\n}\n\nlibrary Address {\n    /**\n     * @dev Returns true if `account` is a contract.\n     *\n     * [IMPORTANT]\n     * ====\n     * It is unsafe to assume that an address for which this function returns\n     * false is an externally-owned account (EOA) and not a contract.\n     *\n     * Among others, `isContract` will return false for the following\n     * types of addresses:\n     *\n     *  - an externally-owned account\n     *  - a contract in construction\n     *  - an address where a contract will be created\n     *  - an address where a contract lived, but was destroyed\n     * ====\n     */\n    function isContract(address account) internal view returns (bool) {\n        // This method relies on extcodesize, which returns 0 for contracts in\n        // construction, since the code is only stored at the end of the\n        // constructor execution.\n\n        uint256 size;\n        // solhint-disable-next-line no-inline-assembly\n        assembly { size := extcodesize(account) }\n        return size > 0;\n    }\n\n    /**\n     * @dev Replacement for Solidity's `transfer`: sends `amount` wei to\n     * `recipient`, forwarding all available gas and reverting on errors.\n     *\n     * https://eips.ethereum.org/EIPS/eip-1884[EIP1884] increases the gas cost\n     * of certain opcodes, possibly making contracts go over the 2300 gas limit\n     * imposed by `transfer`, making them unable to receive funds via\n     * `transfer`. {sendValue} removes this limitation.\n     *\n     * https://diligence.consensys.net/posts/2019/09/stop-using-soliditys-transfer-now/[Learn more].\n     *\n     * IMPORTANT: because control is transferred to `recipient`, care must be\n     * taken to not create reentrancy vulnerabilities. Consider using\n     * {ReentrancyGuard} or the\n     * https://solidity.readthedocs.io/en/v0.5.11/security-considerations.html#use-the-checks-effects-interactions-pattern[checks-effects-interactions pattern].\n     */\n    function sendValue(address payable recipient, uint256 amount) internal {\n        require(address(this).balance >= amount, \"Address: insufficient balance\");\n\n        // solhint-disable-next-line avoid-low-level-calls, avoid-call-value\n        (bool success, ) = recipient.call{ value: amount }(\"\");\n        require(success, \"Address: unable to send value, recipient may have reverted\");\n    }\n\n    /**\n     * @dev Performs a Solidity function call using a low level `call`. A\n     * plain`call` is an unsafe replacement for a function call: use this\n     * function instead.\n     *\n     * If `target` reverts with a revert reason, it is bubbled up by this\n     * function (like regular Solidity function calls).\n     *\n     * Returns the raw returned data. To convert to the expected return value,\n     * use https://solidity.readthedocs.io/en/latest/units-and-global-variables.html?highlight=abi.decode#abi-encoding-and-decoding-functions[`abi.decode`].\n     *\n     * Requirements:\n     *\n     * - `target` must be a contract.\n     * - calling `target` with `data` must not revert.\n     *\n     * _Available since v3.1._\n     */\n    function functionCall(address target, bytes memory data) internal returns (bytes memory) {\n      return functionCall(target, data, \"Address: low-level call failed\");\n    }\n\n    /**\n     * @dev Same as {xref-Address-functionCall-address-bytes-}[`functionCall`], but with\n     * `errorMessage` as a fallback revert reason when `target` reverts.\n     *\n     * _Available since v3.1._\n     */\n    function functionCall(address target, bytes memory data, string memory errorMessage) internal returns (bytes memory) {\n        return functionCallWithValue(target, data, 0, errorMessage);\n    }\n\n    /**\n     * @dev Same as {xref-Address-functionCall-address-bytes-}[`functionCall`],\n     * but also transferring `value` wei to `target`.\n     *\n     * Requirements:\n     *\n     * - the calling contract must have an ETH balance of at least `value`.\n     * - the called Solidity function must be `payable`.\n     *\n     * _Available since v3.1._\n     */\n    function functionCallWithValue(address target, bytes memory data, uint256 value) internal returns (bytes memory) {\n        return functionCallWithValue(target, data, value, \"Address: low-level call with value failed\");\n    }\n\n    /**\n     * @dev Same as {xref-Address-functionCallWithValue-address-bytes-uint256-}[`functionCallWithValue`], but\n     * with `errorMessage` as a fallback revert reason when `target` reverts.\n     *\n     * _Available since v3.1._\n     */\n    function functionCallWithValue(address target, bytes memory data, uint256 value, string memory errorMessage) internal returns (bytes memory) {\n        require(address(this).balance >= value, \"Address: insufficient balance for call\");\n        require(isContract(target), \"Address: call to non-contract\");\n\n        // solhint-disable-next-line avoid-low-level-calls\n        (bool success, bytes memory returndata) = target.call{ value: value }(data);\n        return _verifyCallResult(success, returndata, errorMessage);\n    }\n\n    /**\n     * @dev Same as {xref-Address-functionCall-address-bytes-}[`functionCall`],\n     * but performing a static call.\n     *\n     * _Available since v3.3._\n     */\n    function functionStaticCall(address target, bytes memory data) internal view returns (bytes memory) {\n        return functionStaticCall(target, data, \"Address: low-level static call failed\");\n    }\n\n    /**\n     * @dev Same as {xref-Address-functionCall-address-bytes-string-}[`functionCall`],\n     * but performing a static call.\n     *\n     * _Available since v3.3._\n     */\n    function functionStaticCall(address target, bytes memory data, string memory errorMessage) internal view returns (bytes memory) {\n        require(isContract(target), \"Address: static call to non-contract\");\n\n        // solhint-disable-next-line avoid-low-level-calls\n        (bool success, bytes memory returndata) = target.staticcall(data);\n        return _verifyCallResult(success, returndata, errorMessage);\n    }\n\n    /**\n     * @dev Same as {xref-Address-functionCall-address-bytes-}[`functionCall`],\n     * but performing a delegate call.\n     *\n     * _Available since v3.4._\n     */\n    function functionDelegateCall(address target, bytes memory data) internal returns (bytes memory) {\n        return functionDelegateCall(target, data, \"Address: low-level delegate call failed\");\n    }\n\n    /**\n     * @dev Same as {xref-Address-functionCall-address-bytes-string-}[`functionCall`],\n     * but performing a delegate call.\n     *\n     * _Available since v3.4._\n     */\n    function functionDelegateCall(address target, bytes memory data, string memory errorMessage) internal returns (bytes memory) {\n        require(isContract(target), \"Address: delegate call to non-contract\");\n\n        // solhint-disable-next-line avoid-low-level-calls\n        (bool success, bytes memory returndata) = target.delegatecall(data);\n        return _verifyCallResult(success, returndata, errorMessage);\n    }\n\n    function _verifyCallResult(bool success, bytes memory returndata, string memory errorMessage) private pure returns(bytes memory) {\n        if (success) {\n            return returndata;\n        } else {\n            // Look for revert reason and bubble it up if present\n            if (returndata.length > 0) {\n                // The easiest way to bubble the revert reason is using memory via assembly\n\n                // solhint-disable-next-line no-inline-assembly\n                assembly {\n                    let returndata_size := mload(returndata)\n                    revert(add(32, returndata), returndata_size)\n                }\n            } else {\n                revert(errorMessage);\n            }\n        }\n    }\n}\n\nabstract contract ERC165 is IERC165 {\n    /**\n     * @dev See {IERC165-supportsInterface}.\n     */\n    function supportsInterface(bytes4 interfaceId) public view virtual override returns (bool) {\n        return interfaceId == type(IERC165).interfaceId;\n    }\n}\n\n/**\n * @dev Required interface of an ERC721 compliant contract.\n */\ninterface IERC721 is IERC165 {\n    /**\n     * @dev Emitted when `tokenId` token is transferred from `from` to `to`.\n     */\n    event Transfer(address indexed from, address indexed to, uint256 indexed tokenId);\n\n    /**\n     * @dev Emitted when `owner` enables `approved` to manage the `tokenId` token.\n     */\n    event Approval(address indexed owner, address indexed approved, uint256 indexed tokenId);\n\n    /**\n     * @dev Emitted when `owner` enables or disables (`approved`) `operator` to manage all of its assets.\n     */\n    event ApprovalForAll(address indexed owner, address indexed operator, bool approved);\n\n    /**\n     * @dev Returns the number of tokens in ``owner``'s account.\n     */\n    function balanceOf(address owner) external view returns (uint256 balance);\n\n    /**\n     * @dev Returns the owner of the `tokenId` token.\n     *\n     * Requirements:\n     *\n     * - `tokenId` must exist.\n     */\n    function ownerOf(uint256 tokenId) external view returns (address owner);\n\n    /**\n     * @dev Safely transfers `tokenId` token from `from` to `to`, checking first that contract recipients\n     * are aware of the ERC721 protocol to prevent tokens from being forever locked.\n     *\n     * Requirements:\n     *\n     * - `from` cannot be the zero address.\n     * - `to` cannot be the zero address.\n     * - `tokenId` token must exist and be owned by `from`.\n     * - If the caller is not `from`, it must be have been allowed to move this token by either {approve} or {setApprovalForAll}.\n     * - If `to` refers to a smart contract, it must implement {IERC721Receiver-onERC721Received}, which is called upon a safe transfer.\n     *\n     * Emits a {Transfer} event.\n     */\n    function safeTransferFrom(address from, address to, uint256 tokenId) external;\n\n    /**\n     * @dev Transfers `tokenId` token from `from` to `to`.\n     *\n     * WARNING: Usage of this method is discouraged, use {safeTransferFrom} whenever possible.\n     *\n     * Requirements:\n     *\n     * - `from` cannot be the zero address.\n     * - `to` cannot be the zero address.\n     * - `tokenId` token must be owned by `from`.\n     * - If the caller is not `from`, it must be approved to move this token by either {approve} or {setApprovalForAll}.\n     *\n     * Emits a {Transfer} event.\n     */\n    function transferFrom(address from, address to, uint256 tokenId) external;\n\n    /**\n     * @dev Gives permission to `to` to transfer `tokenId` token to another account.\n     * The approval is cleared when the token is transferred.\n     *\n     * Only a single account can be approved at a time, so approving the zero address clears previous approvals.\n     *\n     * Requirements:\n     *\n     * - The caller must own the token or be an approved operator.\n     * - `tokenId` must exist.\n     *\n     * Emits an {Approval} event.\n     */\n    function approve(address to, uint256 tokenId) external;\n\n    /**\n     * @dev Returns the account approved for `tokenId` token.\n     *\n     * Requirements:\n     *\n     * - `tokenId` must exist.\n     */\n    function getApproved(uint256 tokenId) external view returns (address operator);\n\n    /**\n     * @dev Approve or remove `operator` as an operator for the caller.\n     * Operators can call {transferFrom} or {safeTransferFrom} for any token owned by the caller.\n     *\n     * Requirements:\n     *\n     * - The `operator` cannot be the caller.\n     *\n     * Emits an {ApprovalForAll} event.\n     */\n    function setApprovalForAll(address operator, bool _approved) external;\n\n    /**\n     * @dev Returns if the `operator` is allowed to manage all of the assets of `owner`.\n     *\n     * See {setApprovalForAll}\n     */\n    function isApprovedForAll(address owner, address operator) external view returns (bool);\n\n    /**\n      * @dev Safely transfers `tokenId` token from `from` to `to`.\n      *\n      * Requirements:\n      *\n      * - `from` cannot be the zero address.\n      * - `to` cannot be the zero address.\n      * - `tokenId` token must exist and be owned by `from`.\n      * - If the caller is not `from`, it must be approved to move this token by either {approve} or {setApprovalForAll}.\n      * - If `to` refers to a smart contract, it must implement {IERC721Receiver-onERC721Received}, which is called upon a safe transfer.\n      *\n      * Emits a {Transfer} event.\n      */\n    function safeTransferFrom(address from, address to, uint256 tokenId, bytes calldata data) external;\n}\n\ninterface IERC721Receiver {\n    /**\n     * @dev Whenever an {IERC721} `tokenId` token is transferred to this contract via {IERC721-safeTransferFrom}\n     * by `operator` from `from`, this function is called.\n     *\n     * It must return its Solidity selector to confirm the token transfer.\n     * If any other value is returned or the interface is not implemented by the recipient, the transfer will be reverted.\n     *\n     * The selector can be obtained in Solidity with `IERC721.onERC721Received.selector`.\n     */\n    function onERC721Received(address operator, address from, uint256 tokenId, bytes calldata data) external returns (bytes4);\n}\n\ninterface IERC721Metadata is IERC721 {\n\n    /**\n     * @dev Returns the token collection name.\n     */\n    function name() external view returns (string memory);\n\n    /**\n     * @dev Returns the token collection symbol.\n     */\n    function symbol() external view returns (string memory);\n\n    /**\n     * @dev Returns the Uniform Resource Identifier (URI) for `tokenId` token.\n     */\n    function tokenURI(uint256 tokenId) external view returns (string memory);\n}\n\n/*\n * @dev Provides information about the current execution context, including the\n * sender of the transaction and its data. While these are generally available\n * via msg.sender and msg.data, they should not be accessed in such a direct\n * manner, since when dealing with meta-transactions the account sending and\n * paying for execution may not be the actual sender (as far as an application\n * is concerned).\n *\n * This contract is only required for intermediate, library-like contracts.\n */\nabstract contract Context {\n    function _msgSender() internal view virtual returns (address) {\n        return msg.sender;\n    }\n\n    function _msgData() internal view virtual returns (bytes calldata) {\n        this; // silence state mutability warning without generating bytecode - see https://github.com/ethereum/solidity/issues/2691\n        return msg.data;\n    }\n}\n\n/**\n * @dev Contract module which provides a basic access control mechanism, where\n * there is an account (an owner) that can be granted exclusive access to\n * specific functions.\n *\n * By default, the owner account will be the one that deploys the contract. This\n * can later be changed with {transferOwnership}.\n *\n * This module is used through inheritance. It will make available the modifier\n * `onlyOwner`, which can be applied to your functions to restrict their use to\n * the owner.\n */\nabstract contract Ownable is Context {\n    address private _owner;\n\n    event OwnershipTransferred(address indexed previousOwner, address indexed newOwner);\n\n    /**\n     * @dev Initializes the contract setting the deployer as the initial owner.\n     */\n    constructor () {\n        address msgSender = _msgSender();\n        _owner = msgSender;\n        emit OwnershipTransferred(address(0), msgSender);\n    }\n\n    /**\n     * @dev Returns the address of the current owner.\n     */\n    function owner() public view virtual returns (address) {\n        return _owner;\n    }\n\n    /**\n     * @dev Throws if called by any account other than the owner.\n     */\n    modifier onlyOwner() {\n        require(owner() == _msgSender(), \"Ownable: caller is not the owner\");\n        _;\n    }\n\n    /**\n     * @dev Leaves the contract without owner. It will not be possible to call\n     * `onlyOwner` functions anymore. Can only be called by the current owner.\n     *\n     * NOTE: Renouncing ownership will leave the contract without an owner,\n     * thereby removing any functionality that is only available to the owner.\n     */\n    function renounceOwnership() public virtual onlyOwner {\n        emit OwnershipTransferred(_owner, address(0));\n        _owner = address(0);\n    }\n\n    /**\n     * @dev Transfers ownership of the contract to a new account (`newOwner`).\n     * Can only be called by the current owner.\n     */\n    function transferOwnership(address newOwner) public virtual onlyOwner {\n        require(newOwner != address(0), \"Ownable: new owner is the zero address\");\n        emit OwnershipTransferred(_owner, newOwner);\n        _owner = newOwner;\n    }\n}\n\n// CAUTION\n// This version of SafeMath should only be used with Solidity 0.8 or later,\n// because it relies on the compiler's built in overflow checks.\n\n/**\n * @dev Wrappers over Solidity's arithmetic operations.\n *\n * NOTE: `SafeMath` is no longer needed starting with Solidity 0.8. The compiler\n * now has built in overflow checking.\n */\nlibrary SafeMath {\n    /**\n     * @dev Returns the addition of two unsigned integers, with an overflow flag.\n     *\n     * _Available since v3.4._\n     */\n    function tryAdd(uint256 a, uint256 b) internal pure returns (bool, uint256) {\n        unchecked {\n            uint256 c = a + b;\n            if (c < a) return (false, 0);\n            return (true, c);\n        }\n    }\n\n    /**\n     * @dev Returns the substraction of two unsigned integers, with an overflow flag.\n     *\n     * _Available since v3.4._\n     */\n    function trySub(uint256 a, uint256 b) internal pure returns (bool, uint256) {\n        unchecked {\n            if (b > a) return (false, 0);\n            return (true, a - b);\n        }\n    }\n\n    /**\n     * @dev Returns the multiplication of two unsigned integers, with an overflow flag.\n     *\n     * _Available since v3.4._\n     */\n    function tryMul(uint256 a, uint256 b) internal pure returns (bool, uint256) {\n        unchecked {\n            // Gas optimization: this is cheaper than requiring 'a' not being zero, but the\n            // benefit is lost if 'b' is also tested.\n            // See: https://github.com/OpenZeppelin/openzeppelin-contracts/pull/522\n            if (a == 0) return (true, 0);\n            uint256 c = a * b;\n            if (c / a != b) return (false, 0);\n            return (true, c);\n        }\n    }\n\n    /**\n     * @dev Returns the division of two unsigned integers, with a division by zero flag.\n     *\n     * _Available since v3.4._\n     */\n    function tryDiv(uint256 a, uint256 b) internal pure returns (bool, uint256) {\n        unchecked {\n            if (b == 0) return (false, 0);\n            return (true, a / b);\n        }\n    }\n\n    /**\n     * @dev Returns the remainder of dividing two unsigned integers, with a division by zero flag.\n     *\n     * _Available since v3.4._\n     */\n    function tryMod(uint256 a, uint256 b) internal pure returns (bool, uint256) {\n        unchecked {\n            if (b == 0) return (false, 0);\n            return (true, a % b);\n        }\n    }\n\n    /**\n     * @dev Returns the addition of two unsigned integers, reverting on\n     * overflow.\n     *\n     * Counterpart to Solidity's `+` operator.\n     *\n     * Requirements:\n     *\n     * - Addition cannot overflow.\n     */\n    function add(uint256 a, uint256 b) internal pure returns (uint256) {\n        return a + b;\n    }\n\n    /**\n     * @dev Returns the subtraction of two unsigned integers, reverting on\n     * overflow (when the result is negative).\n     *\n     * Counterpart to Solidity's `-` operator.\n     *\n     * Requirements:\n     *\n     * - Subtraction cannot overflow.\n     */\n    function sub(uint256 a, uint256 b) internal pure returns (uint256) {\n        return a - b;\n    }\n\n    /**\n     * @dev Returns the multiplication of two unsigned integers, reverting on\n     * overflow.\n     *\n     * Counterpart to Solidity's `*` operator.\n     *\n     * Requirements:\n     *\n     * - Multiplication cannot overflow.\n     */\n    function mul(uint256 a, uint256 b) internal pure returns (uint256) {\n        return a * b;\n    }\n\n    /**\n     * @dev Returns the integer division of two unsigned integers, reverting on\n     * division by zero. The result is rounded towards zero.\n     *\n     * Counterpart to Solidity's `/` operator.\n     *\n     * Requirements:\n     *\n     * - The divisor cannot be zero.\n     */\n    function div(uint256 a, uint256 b) internal pure returns (uint256) {\n        return a / b;\n    }\n\n    /**\n     * @dev Returns the remainder of dividing two unsigned integers. (unsigned integer modulo),\n     * reverting when dividing by zero.\n     *\n     * Counterpart to Solidity's `%` operator. This function uses a `revert`\n     * opcode (which leaves remaining gas untouched) while Solidity uses an\n     * invalid opcode to revert (consuming all remaining gas).\n     *\n     * Requirements:\n     *\n     * - The divisor cannot be zero.\n     */\n    function mod(uint256 a, uint256 b) internal pure returns (uint256) {\n        return a % b;\n    }\n\n    /**\n     * @dev Returns the subtraction of two unsigned integers, reverting with custom message on\n     * overflow (when the result is negative).\n     *\n     * CAUTION: This function is deprecated because it requires allocating memory for the error\n     * message unnecessarily. For custom revert reasons use {trySub}.\n     *\n     * Counterpart to Solidity's `-` operator.\n     *\n     * Requirements:\n     *\n     * - Subtraction cannot overflow.\n     */\n    function sub(uint256 a, uint256 b, string memory errorMessage) internal pure returns (uint256) {\n        unchecked {\n            require(b <= a, errorMessage);\n            return a - b;\n        }\n    }\n\n    /**\n     * @dev Returns the integer division of two unsigned integers, reverting with custom message on\n     * division by zero. The result is rounded towards zero.\n     *\n     * Counterpart to Solidity's `%` operator. This function uses a `revert`\n     * opcode (which leaves remaining gas untouched) while Solidity uses an\n     * invalid opcode to revert (consuming all remaining gas).\n     *\n     * Counterpart to Solidity's `/` operator. Note: this function uses a\n     * `revert` opcode (which leaves remaining gas untouched) while Solidity\n     * uses an invalid opcode to revert (consuming all remaining gas).\n     *\n     * Requirements:\n     *\n     * - The divisor cannot be zero.\n     */\n    function div(uint256 a, uint256 b, string memory errorMessage) internal pure returns (uint256) {\n        unchecked {\n            require(b > 0, errorMessage);\n            return a / b;\n        }\n    }\n\n    /**\n     * @dev Returns the remainder of dividing two unsigned integers. (unsigned integer modulo),\n     * reverting with custom message when dividing by zero.\n     *\n     * CAUTION: This function is deprecated because it requires allocating memory for the error\n     * message unnecessarily. For custom revert reasons use {tryMod}.\n     *\n     * Counterpart to Solidity's `%` operator. This function uses a `revert`\n     * opcode (which leaves remaining gas untouched) while Solidity uses an\n     * invalid opcode to revert (consuming all remaining gas).\n     *\n     * Requirements:\n     *\n     * - The divisor cannot be zero.\n     */\n    function mod(uint256 a, uint256 b, string memory errorMessage) internal pure returns (uint256) {\n        unchecked {\n            require(b > 0, errorMessage);\n            return a % b;\n        }\n    }\n}\n\ninterface IERC721Enumerable is IERC721 {\n\n    /**\n     * @dev Returns the total amount of tokens stored by the contract.\n     */\n    function totalSupply() external view returns (uint256);\n\n    /**\n     * @dev Returns a token ID owned by `owner` at a given `index` of its token list.\n     * Use along with {balanceOf} to enumerate all of ``owner``'s tokens.\n     */\n    function tokenOfOwnerByIndex(address owner, uint256 index) external view returns (uint256 tokenId);\n\n    /**\n     * @dev Returns a token ID at a given `index` of all the tokens stored by the contract.\n     * Use along with {totalSupply} to enumerate all tokens.\n     */\n    function tokenByIndex(uint256 index) external view returns (uint256);\n}\n\ncontract ERC721 is Context, ERC165, IERC721, IERC721Metadata {\n    using Address for address;\n    using Strings for uint256;\n\n    // Token name\n    string private _name;\n\n    // Token symbol\n    string private _symbol;\n\n    // Mapping from token ID to owner address\n    mapping (uint256 => address) private _owners;\n\n    // Mapping owner address to token count\n    mapping (address => uint256) private _balances;\n\n    // Mapping from token ID to approved address\n    mapping (uint256 => address) private _tokenApprovals;\n\n    // Mapping from owner to operator approvals\n    mapping (address => mapping (address => bool)) private _operatorApprovals;\n\n    /**\n     * @dev Initializes the contract by setting a `name` and a `symbol` to the token collection.\n     */\n    constructor (string memory name_, string memory symbol_) {\n        _name = name_;\n        _symbol = symbol_;\n    }\n\n    /**\n     * @dev See {IERC165-supportsInterface}.\n     */\n    function supportsInterface(bytes4 interfaceId) public view virtual override(ERC165, IERC165) returns (bool) {\n        return interfaceId == type(IERC721).interfaceId\n            || interfaceId == type(IERC721Metadata).interfaceId\n            || super.supportsInterface(interfaceId);\n    }\n\n    /**\n     * @dev See {IERC721-balanceOf}.\n     */\n    function balanceOf(address owner) public view virtual override returns (uint256) {\n        require(owner != address(0), \"ERC721: balance query for the zero address\");\n        return _balances[owner];\n    }\n\n    /**\n     * @dev See {IERC721-ownerOf}.\n     */\n    function ownerOf(uint256 tokenId) public view virtual override returns (address) {\n        address owner = _owners[tokenId];\n        require(owner != address(0), \"ERC721: owner query for nonexistent token\");\n        return owner;\n    }\n\n    /**\n     * @dev See {IERC721Metadata-name}.\n     */\n    function name() public view virtual override returns (string memory) {\n        return _name;\n    }\n\n    /**\n     * @dev See {IERC721Metadata-symbol}.\n     */\n    function symbol() public view virtual override returns (string memory) {\n        return _symbol;\n    }\n\n    /**\n     * @dev See {IERC721Metadata-tokenURI}.\n     */\n    function tokenURI(uint256 tokenId) public view virtual override returns (string memory) {\n        require(_exists(tokenId), \"ERC721Metadata: URI query for nonexistent token\");\n\n        string memory baseURI = _baseURI();\n        return bytes(baseURI).length > 0\n            ? string(abi.encodePacked(baseURI, tokenId.toString()))\n            : '';\n    }\n\n    /**\n     * @dev Base URI for computing {tokenURI}. Empty by default, can be overriden\n     * in child contracts.\n     */\n    function _baseURI() internal view virtual returns (string memory) {\n        return \"\";\n    }\n\n    /**\n     * @dev See {IERC721-approve}.\n     */\n    function approve(address to, uint256 tokenId) public virtual override {\n        address owner = ERC721.ownerOf(tokenId);\n        require(to != owner, \"ERC721: approval to current owner\");\n\n        require(_msgSender() == owner || isApprovedForAll(owner, _msgSender()),\n            \"ERC721: approve caller is not owner nor approved for all\"\n        );\n\n        _approve(to, tokenId);\n    }\n\n    /**\n     * @dev See {IERC721-getApproved}.\n     */\n    function getApproved(uint256 tokenId) public view virtual override returns (address) {\n        require(_exists(tokenId), \"ERC721: approved query for nonexistent token\");\n\n        return _tokenApprovals[tokenId];\n    }\n\n    /**\n     * @dev See {IERC721-setApprovalForAll}.\n     */\n    function setApprovalForAll(address operator, bool approved) public virtual override {\n        require(operator != _msgSender(), \"ERC721: approve to caller\");\n\n        _operatorApprovals[_msgSender()][operator] = approved;\n        emit ApprovalForAll(_msgSender(), operator, approved);\n    }\n\n    /**\n     * @dev See {IERC721-isApprovedForAll}.\n     */\n    function isApprovedForAll(address owner, address operator) public view virtual override returns (bool) {\n        return _operatorApprovals[owner][operator];\n    }\n\n    /**\n     * @dev See {IERC721-transferFrom}.\n     */\n    function transferFrom(address from, address to, uint256 tokenId) public virtual override {\n        //solhint-disable-next-line max-line-length\n        require(_isApprovedOrOwner(_msgSender(), tokenId), \"ERC721: transfer caller is not owner nor approved\");\n\n        _transfer(from, to, tokenId);\n    }\n\n    /**\n     * @dev See {IERC721-safeTransferFrom}.\n     */\n    function safeTransferFrom(address from, address to, uint256 tokenId) public virtual override {\n        safeTransferFrom(from, to, tokenId, \"\");\n    }\n\n    /**\n     * @dev See {IERC721-safeTransferFrom}.\n     */\n    function safeTransferFrom(address from, address to, uint256 tokenId, bytes memory _data) public virtual override {\n        require(_isApprovedOrOwner(_msgSender(), tokenId), \"ERC721: transfer caller is not owner nor approved\");\n        _safeTransfer(from, to, tokenId, _data);\n    }\n\n    /**\n     * @dev Safely transfers `tokenId` token from `from` to `to`, checking first that contract recipients\n     * are aware of the ERC721 protocol to prevent tokens from being forever locked.\n     *\n     * `_data` is additional data, it has no specified format and it is sent in call to `to`.\n     *\n     * This internal function is equivalent to {safeTransferFrom}, and can be used to e.g.\n     * implement alternative mechanisms to perform token transfer, such as signature-based.\n     *\n     * Requirements:\n     *\n     * - `from` cannot be the zero address.\n     * - `to` cannot be the zero address.\n     * - `tokenId` token must exist and be owned by `from`.\n     * - If `to` refers to a smart contract, it must implement {IERC721Receiver-onERC721Received}, which is called upon a safe transfer.\n     *\n     * Emits a {Transfer} event.\n     */\n    function _safeTransfer(address from, address to, uint256 tokenId, bytes memory _data) internal virtual {\n        _transfer(from, to, tokenId);\n        require(_checkOnERC721Received(from, to, tokenId, _data), \"ERC721: transfer to non ERC721Receiver implementer\");\n    }\n\n    /**\n     * @dev Returns whether `tokenId` exists.\n     *\n     * Tokens can be managed by their owner or approved accounts via {approve} or {setApprovalForAll}.\n     *\n     * Tokens start existing when they are minted (`_mint`),\n     * and stop existing when they are burned (`_burn`).\n     */\n    function _exists(uint256 tokenId) internal view virtual returns (bool) {\n        return _owners[tokenId] != address(0);\n    }\n\n    /**\n     * @dev Returns whether `spender` is allowed to manage `tokenId`.\n     *\n     * Requirements:\n     *\n     * - `tokenId` must exist.\n     */\n    function _isApprovedOrOwner(address spender, uint256 tokenId) internal view virtual returns (bool) {\n        require(_exists(tokenId), \"ERC721: operator query for nonexistent token\");\n        address owner = ERC721.ownerOf(tokenId);\n        return (spender == owner || getApproved(tokenId) == spender || isApprovedForAll(owner, spender));\n    }\n\n    /**\n     * @dev Safely mints `tokenId` and transfers it to `to`.\n     *\n     * Requirements:\n     *\n     * - `tokenId` must not exist.\n     * - If `to` refers to a smart contract, it must implement {IERC721Receiver-onERC721Received}, which is called upon a safe transfer.\n     *\n     * Emits a {Transfer} event.\n     */\n    function _safeMint(address to, uint256 tokenId) internal virtual {\n        _safeMint(to, tokenId, \"\");\n    }\n\n    /**\n     * @dev Same as {xref-ERC721-_safeMint-address-uint256-}[`_safeMint`], with an additional `data` parameter which is\n     * forwarded in {IERC721Receiver-onERC721Received} to contract recipients.\n     */\n    function _safeMint(address to, uint256 tokenId, bytes memory _data) internal virtual {\n        _mint(to, tokenId);\n        require(_checkOnERC721Received(address(0), to, tokenId, _data), \"ERC721: transfer to non ERC721Receiver implementer\");\n    }\n\n    /**\n     * @dev Mints `tokenId` and transfers it to `to`.\n     *\n     * WARNING: Usage of this method is discouraged, use {_safeMint} whenever possible\n     *\n     * Requirements:\n     *\n     * - `tokenId` must not exist.\n     * - `to` cannot be the zero address.\n     *\n     * Emits a {Transfer} event.\n     */\n    function _mint(address to, uint256 tokenId) internal virtual {\n        require(to != address(0), \"ERC721: mint to the zero address\");\n        require(!_exists(tokenId), \"ERC721: token already minted\");\n\n        _beforeTokenTransfer(address(0), to, tokenId);\n\n        _balances[to] += 1;\n        _owners[tokenId] = to;\n\n        emit Transfer(address(0), to, tokenId);\n    }\n\n    /**\n     * @dev Destroys `tokenId`.\n     * The approval is cleared when the token is burned.\n     *\n     * Requirements:\n     *\n     * - `tokenId` must exist.\n     *\n     * Emits a {Transfer} event.\n     */\n    function _burn(uint256 tokenId) internal virtual {\n        address owner = ERC721.ownerOf(tokenId);\n\n        _beforeTokenTransfer(owner, address(0), tokenId);\n\n        // Clear approvals\n        _approve(address(0), tokenId);\n\n        _balances[owner] -= 1;\n        delete _owners[tokenId];\n\n        emit Transfer(owner, address(0), tokenId);\n    }\n\n    /**\n     * @dev Transfers `tokenId` from `from` to `to`.\n     *  As opposed to {transferFrom}, this imposes no restrictions on msg.sender.\n     *\n     * Requirements:\n     *\n     * - `to` cannot be the zero address.\n     * - `tokenId` token must be owned by `from`.\n     *\n     * Emits a {Transfer} event.\n     */\n    function _transfer(address from, address to, uint256 tokenId) internal virtual {\n        require(ERC721.ownerOf(tokenId) == from, \"ERC721: transfer of token that is not own\");\n        require(to != address(0), \"ERC721: transfer to the zero address\");\n\n        _beforeTokenTransfer(from, to, tokenId);\n\n        // Clear approvals from the previous owner\n        _approve(address(0), tokenId);\n\n        _balances[from] -= 1;\n        _balances[to] += 1;\n        _owners[tokenId] = to;\n\n        emit Transfer(from, to, tokenId);\n    }\n\n    /**\n     * @dev Approve `to` to operate on `tokenId`\n     *\n     * Emits a {Approval} event.\n     */\n    function _approve(address to, uint256 tokenId) internal virtual {\n        _tokenApprovals[tokenId] = to;\n        emit Approval(ERC721.ownerOf(tokenId), to, tokenId);\n    }\n\n    /**\n     * @dev Internal function to invoke {IERC721Receiver-onERC721Received} on a target address.\n     * The call is not executed if the target address is not a contract.\n     *\n     * @param from address representing the previous owner of the given token ID\n     * @param to target address that will receive the tokens\n     * @param tokenId uint256 ID of the token to be transferred\n     * @param _data bytes optional data to send along with the call\n     * @return bool whether the call correctly returned the expected magic value\n     */\n    function _checkOnERC721Received(address from, address to, uint256 tokenId, bytes memory _data)\n        private returns (bool)\n    {\n        if (to.isContract()) {\n            try IERC721Receiver(to).onERC721Received(_msgSender(), from, tokenId, _data) returns (bytes4 retval) {\n                return retval == IERC721Receiver(to).onERC721Received.selector;\n            } catch (bytes memory reason) {\n                if (reason.length == 0) {\n                    revert(\"ERC721: transfer to non ERC721Receiver implementer\");\n                } else {\n                    // solhint-disable-next-line no-inline-assembly\n                    assembly {\n                        revert(add(32, reason), mload(reason))\n                    }\n                }\n            }\n        } else {\n            return true;\n        }\n    }\n\n    /**\n     * @dev Hook that is called before any token transfer. This includes minting\n     * and burning.\n     *\n     * Calling conditions:\n     *\n     * - When `from` and `to` are both non-zero, ``from``'s `tokenId` will be\n     * transferred to `to`.\n     * - When `from` is zero, `tokenId` will be minted for `to`.\n     * - When `to` is zero, ``from``'s `tokenId` will be burned.\n     * - `from` cannot be the zero address.\n     * - `to` cannot be the zero address.\n     *\n     * To learn more about hooks, head to xref:ROOT:extending-contracts.adoc#using-hooks[Using Hooks].\n     */\n    function _beforeTokenTransfer(address from, address to, uint256 tokenId) internal virtual { }\n}\n\nabstract contract ERC721Enumerable is ERC721, IERC721Enumerable {\n    // Mapping from owner to list of owned token IDs\n    mapping(address => mapping(uint256 => uint256)) private _ownedTokens;\n\n    // Mapping from token ID to index of the owner tokens list\n    mapping(uint256 => uint256) private _ownedTokensIndex;\n\n    // Array with all token ids, used for enumeration\n    uint256[] private _allTokens;\n\n    // Mapping from token id to position in the allTokens array\n    mapping(uint256 => uint256) private _allTokensIndex;\n\n    /**\n     * @dev See {IERC165-supportsInterface}.\n     */\n    function supportsInterface(bytes4 interfaceId) public view virtual override(IERC165, ERC721) returns (bool) {\n        return interfaceId == type(IERC721Enumerable).interfaceId\n            || super.supportsInterface(interfaceId);\n    }\n\n    /**\n     * @dev See {IERC721Enumerable-tokenOfOwnerByIndex}.\n     */\n    function tokenOfOwnerByIndex(address owner, uint256 index) public view virtual override returns (uint256) {\n        require(index < ERC721.balanceOf(owner), \"ERC721Enumerable: owner index out of bounds\");\n        return _ownedTokens[owner][index];\n    }\n\n    /**\n     * @dev See {IERC721Enumerable-totalSupply}.\n     */\n    function totalSupply() public view virtual override returns (uint256) {\n        return _allTokens.length;\n    }\n\n    function totalMintedId() public view returns (uint256[] memory) {\n        return _allTokens;\n    }    \n    /**\n     * @dev See {IERC721Enumerable-tokenByIndex}.\n     */\n    function tokenByIndex(uint256 index) public view virtual override returns (uint256) {\n        require(index < ERC721Enumerable.totalSupply(), \"ERC721Enumerable: global index out of bounds\");\n        return _allTokens[index];\n    }\n\n    /**\n     * @dev Hook that is called before any token transfer. This includes minting\n     * and burning.\n     *\n     * Calling conditions:\n     *\n     * - When `from` and `to` are both non-zero, ``from``'s `tokenId` will be\n     * transferred to `to`.\n     * - When `from` is zero, `tokenId` will be minted for `to`.\n     * - When `to` is zero, ``from``'s `tokenId` will be burned.\n     * - `from` cannot be the zero address.\n     * - `to` cannot be the zero address.\n     *\n     * To learn more about hooks, head to xref:ROOT:extending-contracts.adoc#using-hooks[Using Hooks].\n     */\n    function _beforeTokenTransfer(address from, address to, uint256 tokenId) internal virtual override {\n        super._beforeTokenTransfer(from, to, tokenId);\n\n        if (from == address(0)) {\n            _addTokenToAllTokensEnumeration(tokenId);\n        } else if (from != to) {\n            _removeTokenFromOwnerEnumeration(from, tokenId);\n        }\n        if (to == address(0)) {\n            _removeTokenFromAllTokensEnumeration(tokenId);\n        } else if (to != from) {\n            _addTokenToOwnerEnumeration(to, tokenId);\n        }\n    }\n\n    /**\n     * @dev Private function to add a token to this extension's ownership-tracking data structures.\n     * @param to address representing the new owner of the given token ID\n     * @param tokenId uint256 ID of the token to be added to the tokens list of the given address\n     */\n    function _addTokenToOwnerEnumeration(address to, uint256 tokenId) private {\n        uint256 length = ERC721.balanceOf(to);\n        _ownedTokens[to][length] = tokenId;\n        _ownedTokensIndex[tokenId] = length;\n    }\n\n    /**\n     * @dev Private function to add a token to this extension's token tracking data structures.\n     * @param tokenId uint256 ID of the token to be added to the tokens list\n     */\n    function _addTokenToAllTokensEnumeration(uint256 tokenId) private {\n        _allTokensIndex[tokenId] = _allTokens.length;\n        _allTokens.push(tokenId);\n    }\n\n    /**\n     * @dev Private function to remove a token from this extension's ownership-tracking data structures. Note that\n     * while the token is not assigned a new owner, the `_ownedTokensIndex` mapping is _not_ updated: this allows for\n     * gas optimizations e.g. when performing a transfer operation (avoiding double writes).\n     * This has O(1) time complexity, but alters the order of the _ownedTokens array.\n     * @param from address representing the previous owner of the given token ID\n     * @param tokenId uint256 ID of the token to be removed from the tokens list of the given address\n     */\n    function _removeTokenFromOwnerEnumeration(address from, uint256 tokenId) private {\n        // To prevent a gap in from's tokens array, we store the last token in the index of the token to delete, and\n        // then delete the last slot (swap and pop).\n\n        uint256 lastTokenIndex = ERC721.balanceOf(from) - 1;\n        uint256 tokenIndex = _ownedTokensIndex[tokenId];\n\n        // When the token to delete is the last token, the swap operation is unnecessary\n        if (tokenIndex != lastTokenIndex) {\n            uint256 lastTokenId = _ownedTokens[from][lastTokenIndex];\n\n            _ownedTokens[from][tokenIndex] = lastTokenId; // Move the last token to the slot of the to-delete token\n            _ownedTokensIndex[lastTokenId] = tokenIndex; // Update the moved token's index\n        }\n\n        // This also deletes the contents at the last position of the array\n        delete _ownedTokensIndex[tokenId];\n        delete _ownedTokens[from][lastTokenIndex];\n    }\n\n    /**\n     * @dev Private function to remove a token from this extension's token tracking data structures.\n     * This has O(1) time complexity, but alters the order of the _allTokens array.\n     * @param tokenId uint256 ID of the token to be removed from the tokens list\n     */\n    function _removeTokenFromAllTokensEnumeration(uint256 tokenId) private {\n        // To prevent a gap in the tokens array, we store the last token in the index of the token to delete, and\n        // then delete the last slot (swap and pop).\n\n        uint256 lastTokenIndex = _allTokens.length - 1;\n        uint256 tokenIndex = _allTokensIndex[tokenId];\n\n        // When the token to delete is the last token, the swap operation is unnecessary. However, since this occurs so\n        // rarely (when the last minted token is burnt) that we still do the swap here to avoid the gas cost of adding\n        // an 'if' statement (like in _removeTokenFromOwnerEnumeration)\n        uint256 lastTokenId = _allTokens[lastTokenIndex];\n\n        _allTokens[tokenIndex] = lastTokenId; // Move the last token to the slot of the to-delete token\n        _allTokensIndex[lastTokenId] = tokenIndex; // Update the moved token's index\n\n        // This also deletes the contents at the last position of the array\n        delete _allTokensIndex[tokenId];\n        _allTokens.pop();\n    }\n}\n\ncontract Whitelist is Ownable {\n  mapping(address => bool) public whitelist;\n  \n  event WhitelistedAddressAdded(address addr);\n  event WhitelistedAddressRemoved(address addr);\n\n  function addAddressToWhitelist(address addr) onlyOwner public returns(bool success) {\n    if (!whitelist[addr]) {\n      whitelist[addr] = true;\n      emit WhitelistedAddressAdded(addr);\n      success = true; \n    }\n  }\n  \n  function addAddressesToWhitelist(address[] calldata addrs) onlyOwner public returns(bool success) {\n    for (uint256 i = 0; i < addrs.length; i++) {\n      if (addAddressToWhitelist(addrs[i])) {\n        success = true;\n      }\n    }\n  }\n\n  function removeAddressFromWhitelist(address addr) onlyOwner public returns(bool success) {\n    if (whitelist[addr]) {\n      whitelist[addr] = false;\n      emit WhitelistedAddressRemoved(addr);\n      success = true;\n    }\n  }\n\n  function removeAddressesFromWhitelist(address[] calldata addrs) onlyOwner public returns(bool success) {\n    for (uint256 i = 0; i < addrs.length; i++) {\n      if (removeAddressFromWhitelist(addrs[i])) {\n        success = true;\n      }\n    }\n  }\n\n}\n\ncontract TinyKiller is ERC721Enumerable, Whitelist {\n    using Strings for uint256;\n    string public baseURI;\n    string public baseExtension = \".json\";\n    uint256 public cost = 0.01 ether;\n    uint256 public mintPerTransactionAllowed = 20;\n    bool public paused = false;\n    struct tinyTypeSupply { uint256 start; uint256 end;} \n    mapping(string => tinyTypeSupply) public types;\n\n    //characters count\n    uint256 private asagoStartLimit = 1;\n    uint256 private asagoEndLimit = 2000;\n    uint256 private kajiwaraStartLimit = 2001;\n    uint256 private kajiwaraEndLimit = 4000;\n    uint256 private kusakiStartLimit = 4001;\n    uint256 private kusakiEndLimit = 6000;\n    uint256 private sakedaStartLimit = 6001;\n    uint256 private sakedaEndLimit = 8000;\n    uint256 private tozawaStartLimit = 8001;\n    uint256 private tozawaEndLimit = 10000;\n\n    constructor(string memory _name , string memory _symbol, string memory _URI) ERC721(_name,_symbol) {\n        types[\"ASAGO\"].start = asagoStartLimit;\n        types[\"ASAGO\"].end = asagoEndLimit;\n        types[\"KAJIWARA\"].start = kajiwaraStartLimit;\n        types[\"KAJIWARA\"].end = kajiwaraEndLimit;\n        types[\"KUSAKI\"].start = kusakiStartLimit;\n        types[\"KUSAKI\"].end = kusakiEndLimit;\n        types[\"SAKEDA\"].start = sakedaStartLimit;\n        types[\"SAKEDA\"].end = sakedaEndLimit;\n        types[\"TOZAWA\"].start = tozawaStartLimit;\n        types[\"TOZAWA\"].end = tozawaEndLimit;\n        setBaseURI(_URI);\n        addAddressToWhitelist(msg.sender);\n    }\n\n    /// @dev internal function to get base URL\n    function _baseURI() internal view virtual override returns (string memory) {\n        return baseURI;\n    }\n\n    /**\n    * @notice Payable function to mint nfts by killer type\n    * @param _to address\n    * @param _mintAmount integer\n    * @param _killerType string\n    */\n    function mint(address _to, uint256 _mintAmount, string memory _killerType) public payable {\n        require(!paused,\"Minting is paused\");\n        require(_mintAmount > 0, \"Amount should be greater than zero\");\n        require(_mintAmount <= mintPerTransactionAllowed, \"You can mint a maximum of 20 NFT at once\");\n        require(types[_killerType].start + _mintAmount <= types[_killerType].end, \"Exceeds maximum supply\");\n        require(msg.value >= cost * _mintAmount , \"Ether sent is not correct\");\n        for (uint256 i = 1; i <= _mintAmount; i++) {\n            _safeMint(_to, types[_killerType].start);\n            types[_killerType].start += 1;\n        }\n    }\n\n    /**\n    * @notice Get remaining supply by type\n    * @param _type string killer type\n    */\n    function remainingSupplyByType(string memory _type) public view returns(uint256){\n       return (types[_type].end - types[_type].start);\n    }\n\n    function walletOfOwner(address _owner) public view returns (uint256[] memory) {\n        uint256 ownerTokenCount = balanceOf(_owner);\n        uint256[] memory tokenIds = new uint256[](ownerTokenCount);\n        for (uint256 i; i < ownerTokenCount; i++) {\n            tokenIds[i] = tokenOfOwnerByIndex(_owner, i);\n        }\n        return tokenIds;\n    }\n\n    /**\n    * @notice Get token URL by token id\n    * @param tokenId integer token id\n    */\n    function tokenURI(uint256 tokenId) public view virtual override returns (string memory) {\n        require(_exists(tokenId), \"ERC721Metadata: URI query for nonexistent token\" );\n        string memory currentBaseURI = _baseURI();\n        return bytes(currentBaseURI).length > 0  ? string(abi.encodePacked(currentBaseURI, tokenId.toString(), baseExtension)) : \"\";\n    }\n\n    /// @dev only owner\n    /**\n    * @notice Set cost of NFT\n    * @param _newCost integer new cost\n    */\n    function setCost(uint256 _newCost) public onlyOwner() {\n        cost = _newCost;\n    }\n\n    /**\n    * @notice Set maximum minting count/transaction\n    * @param _mintPerTransactionAllowed integer \n    */\n    function setmaxMintAmount(uint256 _mintPerTransactionAllowed) public onlyOwner() {\n        mintPerTransactionAllowed = _mintPerTransactionAllowed;\n    }\n\n    /**\n    * @notice Set base URL\n    * @param _newBaseURI string \n    */\n    function setBaseURI(string memory _newBaseURI) public onlyOwner {\n        baseURI = _newBaseURI;\n    }\n\n    /**\n    * @notice Set metadata file extention\n    * @param _newBaseExtension string \n    */\n    function setBaseExtension(string memory _newBaseExtension) public onlyOwner {\n        baseExtension = _newBaseExtension;\n    }\n\n    /**\n    * @notice To pause minting\n    * @param _state bool true/false \n    */\n    function pause(bool _state) public onlyOwner {\n        paused = _state;\n    }\n\n    /**\n    * @notice Update Asago killer type limits\n    * @param _asagoStartLimit integer\n    * @param _asagoEndLimit integer\n    */\n    function updateAsagoTypeLimits(uint256 _asagoStartLimit , uint256 _asagoEndLimit) public onlyOwner {\n        types[\"ASAGO\"].start = _asagoStartLimit;\n        types[\"ASAGO\"].end = _asagoEndLimit;\n    }\n\n    /**\n    * @notice Update Kajiwara killer type limits\n    * @param _kajiwaraStartLimit integer\n    * @param _kajiwaraEndLimit integer\n    */\n    function updateKajiwaraTypeLimits(uint256 _kajiwaraStartLimit , uint256 _kajiwaraEndLimit) public onlyOwner {\n        types[\"KAJIWARA\"].start = _kajiwaraStartLimit;\n        types[\"KAJIWARA\"].end = _kajiwaraEndLimit;\n    }\n\n    /**\n    * @notice Update Kusaki killer type limits\n    * @param _kusakiStartLimit integer\n    * @param _kusakiEndLimit integer\n    */\n    function updateKusakiTypeLimits(uint256 _kusakiStartLimit , uint256 _kusakiEndLimit) public onlyOwner {\n        types[\"KUSAKI\"].start = _kusakiStartLimit;\n        types[\"KUSAKI\"].end = _kusakiEndLimit;\n    }\n\n    /**\n    * @notice Update Sakeda killer type limits\n    * @param _sakedaStartLimit integer\n    * @param _sakedaEndLimit integer\n    */\n    function updateSakedaTypeLimits(uint256 _sakedaStartLimit , uint256 _sakedaEndLimit) public onlyOwner {\n        types[\"SAKEDA\"].start = _sakedaStartLimit;\n        types[\"SAKEDA\"].end = _sakedaEndLimit;\n    }\n\n    /**\n    * @notice Update Tozawa killer type limits\n    * @param _tozawaStartLimit integer\n    * @param _tozawaEndLimit integer\n    */\n    function updateTozawaTypeLimits(uint256 _tozawaStartLimit , uint256 _tozawaEndLimit) public onlyOwner {\n        types[\"TOZAWA\"].start = _tozawaStartLimit;\n        types[\"TOZAWA\"].end = _tozawaEndLimit;\n    }   \n\n    ///@dev only owner\n    ///@notice To withdraw funds from wallet\n    function withdraw() public payable onlyOwner {\n        require(payable(msg.sender).send(address(this).balance));\n    }  \n}\n\n\n",
  "sourcePath": "/home/pawan/tinykillers/tinykillers/contracts/SmartContract.sol",
  "compiler": {
    "name": "solc",
    "version": "0.8.0+commit.c7dfd78e.Emscripten.clang"
  },
  "schemaVersion": "3.4.4",
  "updatedAt": "2022-02-10T03:41:08.294Z",
  "devdoc": {
    "kind": "dev",
    "methods": {
      "approve(address,uint256)": {
        "details": "See {IERC721-approve}."
      },
      "balanceOf(address)": {
        "details": "See {IERC721-balanceOf}."
      },
      "getApproved(uint256)": {
        "details": "See {IERC721-getApproved}."
      },
      "isApprovedForAll(address,address)": {
        "details": "See {IERC721-isApprovedForAll}."
      },
      "mint(address,uint256,string)": {
        "params": {
          "_killerType": "string",
          "_mintAmount": "integer",
          "_to": "address"
        }
      },
      "name()": {
        "details": "See {IERC721Metadata-name}."
      },
      "owner()": {
        "details": "Returns the address of the current owner."
      },
      "ownerOf(uint256)": {
        "details": "See {IERC721-ownerOf}."
      },
      "pause(bool)": {
        "params": {
          "_state": "bool true/false "
        }
      },
      "remainingSupplyByType(string)": {
        "params": {
          "_type": "string killer type"
        }
      },
      "renounceOwnership()": {
        "details": "Leaves the contract without owner. It will not be possible to call `onlyOwner` functions anymore. Can only be called by the current owner. NOTE: Renouncing ownership will leave the contract without an owner, thereby removing any functionality that is only available to the owner."
      },
      "safeTransferFrom(address,address,uint256)": {
        "details": "See {IERC721-safeTransferFrom}."
      },
      "safeTransferFrom(address,address,uint256,bytes)": {
        "details": "See {IERC721-safeTransferFrom}."
      },
      "setApprovalForAll(address,bool)": {
        "details": "See {IERC721-setApprovalForAll}."
      },
      "setBaseExtension(string)": {
        "params": {
          "_newBaseExtension": "string "
        }
      },
      "setBaseURI(string)": {
        "params": {
          "_newBaseURI": "string "
        }
      },
      "setCost(uint256)": {
        "params": {
          "_newCost": "integer new cost"
        }
      },
      "setmaxMintAmount(uint256)": {
        "params": {
          "_mintPerTransactionAllowed": "integer "
        }
      },
      "supportsInterface(bytes4)": {
        "details": "See {IERC165-supportsInterface}."
      },
      "symbol()": {
        "details": "See {IERC721Metadata-symbol}."
      },
      "tokenByIndex(uint256)": {
        "details": "See {IERC721Enumerable-tokenByIndex}."
      },
      "tokenOfOwnerByIndex(address,uint256)": {
        "details": "See {IERC721Enumerable-tokenOfOwnerByIndex}."
      },
      "tokenURI(uint256)": {
        "params": {
          "tokenId": "integer token id"
        }
      },
      "totalSupply()": {
        "details": "See {IERC721Enumerable-totalSupply}."
      },
      "transferFrom(address,address,uint256)": {
        "details": "See {IERC721-transferFrom}."
      },
      "transferOwnership(address)": {
        "details": "Transfers ownership of the contract to a new account (`newOwner`). Can only be called by the current owner."
      },
      "updateAsagoTypeLimits(uint256,uint256)": {
        "params": {
          "_asagoEndLimit": "integer",
          "_asagoStartLimit": "integer"
        }
      },
      "updateKajiwaraTypeLimits(uint256,uint256)": {
        "params": {
          "_kajiwaraEndLimit": "integer",
          "_kajiwaraStartLimit": "integer"
        }
      },
      "updateKusakiTypeLimits(uint256,uint256)": {
        "params": {
          "_kusakiEndLimit": "integer",
          "_kusakiStartLimit": "integer"
        }
      },
      "updateSakedaTypeLimits(uint256,uint256)": {
        "params": {
          "_sakedaEndLimit": "integer",
          "_sakedaStartLimit": "integer"
        }
      },
      "updateTozawaTypeLimits(uint256,uint256)": {
        "params": {
          "_tozawaEndLimit": "integer",
          "_tozawaStartLimit": "integer"
        }
      },
      "withdraw()": {
        "details": "only owner"
      }
    },
    "version": 1
  },
  "userdoc": {
    "kind": "user",
    "methods": {
      "mint(address,uint256,string)": {
        "notice": "Payable function to mint nfts by killer type"
      },
      "pause(bool)": {
        "notice": "To pause minting"
      },
      "remainingSupplyByType(string)": {
        "notice": "Get remaining supply by type"
      },
      "setBaseExtension(string)": {
        "notice": "Set metadata file extention"
      },
      "setBaseURI(string)": {
        "notice": "Set base URL"
      },
      "setCost(uint256)": {
        "notice": "Set cost of NFT"
      },
      "setmaxMintAmount(uint256)": {
        "notice": "Set maximum minting count/transaction"
      },
      "tokenURI(uint256)": {
        "notice": "Get token URL by token id"
      },
      "updateAsagoTypeLimits(uint256,uint256)": {
        "notice": "Update Asago killer type limits"
      },
      "updateKajiwaraTypeLimits(uint256,uint256)": {
        "notice": "Update Kajiwara killer type limits"
      },
      "updateKusakiTypeLimits(uint256,uint256)": {
        "notice": "Update Kusaki killer type limits"
      },
      "updateSakedaTypeLimits(uint256,uint256)": {
        "notice": "Update Sakeda killer type limits"
      },
      "updateTozawaTypeLimits(uint256,uint256)": {
        "notice": "Update Tozawa killer type limits"
      },
      "withdraw()": {
        "notice": "To withdraw funds from wallet"
      }
    },
    "version": 1
  }
}